{"abi":[{"type":"constructor","inputs":[{"name":"_contractOwner","type":"address","internalType":"address"},{"name":"_diamondCutFacet","type":"address","internalType":"address"}],"stateMutability":"payable"},{"type":"fallback","stateMutability":"payable"},{"type":"receive","stateMutability":"payable"},{"type":"function","name":"example","inputs":[],"outputs":[{"name":"","type":"string","internalType":"string"}],"stateMutability":"pure"},{"type":"event","name":"DiamondCut","inputs":[{"name":"_diamondCut","type":"tuple[]","indexed":false,"internalType":"struct IDiamondCut.FacetCut[]","components":[{"name":"facetAddress","type":"address","internalType":"address"},{"name":"action","type":"uint8","internalType":"enum IDiamondCut.FacetCutAction"},{"name":"functionSelectors","type":"bytes4[]","internalType":"bytes4[]"}]},{"name":"_init","type":"address","indexed":false,"internalType":"address"},{"name":"_calldata","type":"bytes","indexed":false,"internalType":"bytes"}],"anonymous":false},{"type":"event","name":"OwnershipTransferred","inputs":[{"name":"previousOwner","type":"address","indexed":true,"internalType":"address"},{"name":"newOwner","type":"address","indexed":true,"internalType":"address"}],"anonymous":false},{"type":"error","name":"EmptyCalldata","inputs":[]},{"type":"error","name":"ImmutableFunction","inputs":[{"name":"selector","type":"bytes4","internalType":"bytes4"}]},{"type":"error","name":"InValidFacetCutAction","inputs":[]},{"type":"error","name":"InitCallFailed","inputs":[]},{"type":"error","name":"MustBeZeroAddress","inputs":[]},{"type":"error","name":"NoCode","inputs":[]},{"type":"error","name":"NoSelectorsInFacet","inputs":[]},{"type":"error","name":"NoZeroAddress","inputs":[]},{"type":"error","name":"NonEmptyCalldata","inputs":[]},{"type":"error","name":"NonExistentSelector","inputs":[{"name":"selector","type":"bytes4","internalType":"bytes4"}]},{"type":"error","name":"SameSelectorReplacement","inputs":[{"name":"selector","type":"bytes4","internalType":"bytes4"}]},{"type":"error","name":"SelectorExists","inputs":[{"name":"selector","type":"bytes4","internalType":"bytes4"}]}],"bytecode":{"object":"0x6080604052604051620011e7380380620011e7833981016040819052620000269162000d62565b620000318262000146565b604080516001808252818301909252600091816020015b60408051606080820183526000808352602083015291810191909152815260200190600190039081620000485750506040805160018082528183019092529192506000919060208083019080368337019050509050631f931c1c60e01b81600081518110620000bb57620000bb62000d9a565b6001600160e01b031990921660209283029190910182015260408051606081019091526001600160a01b03851681529081016000815260200182815250826000815181106200010e576200010e62000d9a565b60200260200101819052506200013c82600060405180602001604052806000815250620001ca60201b60201c565b5050505062000fd7565b7fc8fcad8db84d3cc18b4c41d551ea0ee66dd599cde068d998e57d5e09332c132080546001600160a01b031981166001600160a01b03848116918217909355604051600080516020620011c7833981519152939092169182907f8be0079c531659141344cd1fd0a4f28419497f9722a3daafe3b4186f6b6457e090600090a3505050565b60005b835181101562000385576000848281518110620001ee57620001ee62000d9a565b60200260200101516020015190506000600281111562000212576200021262000db0565b81600281111562000227576200022762000db0565b0362000285576200027f85838151811062000246576200024662000d9a565b60200260200101516000015186848151811062000267576200026762000d9a565b602002602001015160400151620003d460201b60201c565b6200037b565b60018160028111156200029c576200029c62000db0565b03620002f4576200027f858381518110620002bb57620002bb62000d9a565b602002602001015160000151868481518110620002dc57620002dc62000d9a565b602002602001015160400151620005ac60201b60201c565b60028160028111156200030b576200030b62000db0565b0362000363576200027f8583815181106200032a576200032a62000d9a565b6020026020010151600001518684815181106200034b576200034b62000d9a565b6020026020010151604001516200078b60201b60201c565b60405162c5e5d760e31b815260040160405180910390fd5b50600101620001cd565b507f8faa70878671ccd212d20771b795c50af8fd3ff6cf27f4bde57e5d4de0aeb673838383604051620003bb9392919062000e1a565b60405180910390a1620003cf82826200085b565b505050565b6000815111620003f75760405163092d2fe560e41b815260040160405180910390fd5b600080516020620011c78339815191526001600160a01b0383166200042f5760405163ddbadd5f60e01b815260040160405180910390fd5b6001600160a01b0383166000908152600182016020526040812054906001600160601b0382169003620004685762000468828562000975565b60005b8351811015620005a55760008482815181106200048c576200048c62000d9a565b6020908102919091018101516001600160e01b031981166000908152918690526040909120549091506001600160a01b03168015620004ef5760405163501e70c760e01b81526001600160e01b0319831660048201526024015b60405180910390fd5b6001600160e01b0319821660008181526020878152604080832080546001600160a01b03908116600160a01b6001600160601b038c16021782558c168085526001808c0185529285208054938401815585528385206008840401805463ffffffff60079095166004026101000a948502191660e08a901c94909402939093179092559390925287905281546001600160a01b03191617905583620005938162000f3a565b945050600190920191506200046b9050565b5050505050565b6000815111620005cf5760405163092d2fe560e41b815260040160405180910390fd5b600080516020620011c78339815191526001600160a01b038316620006075760405163ddbadd5f60e01b815260040160405180910390fd5b6001600160a01b0383166000908152600182016020526040812054906001600160601b0382169003620006405762000640828562000975565b60005b8351811015620005a557600084828151811062000664576200066462000d9a565b6020908102919091018101516001600160e01b031981166000908152918690526040909120549091506001600160a01b039081169087168103620006c857604051631c04188b60e31b81526001600160e01b031983166004820152602401620004e6565b620006d5858284620009c8565b6001600160e01b0319821660008181526020878152604080832080546001600160a01b03908116600160a01b6001600160601b038c16021782558c168085526001808c0185529285208054938401815585528385206008840401805463ffffffff60079095166004026101000a948502191660e08a901c94909402939093179092559390925287905281546001600160a01b03191617905583620007798162000f3a565b94505060019092019150620006439050565b6000815111620007ae5760405163092d2fe560e41b815260040160405180910390fd5b600080516020620011c78339815191526001600160a01b03831615620007e757604051631be65fe560e21b815260040160405180910390fd5b60005b8251811015620008555760008382815181106200080b576200080b62000d9a565b6020908102919091018101516001600160e01b031981166000908152918590526040909120549091506001600160a01b03166200084a848284620009c8565b5050600101620007ea565b50505050565b6001600160a01b0382166200088f578051156200088b5760405163c21b1ab760e01b815260040160405180910390fd5b5050565b8051600003620008b257604051633011e86160e21b815260040160405180910390fd5b6001600160a01b0382163014620008ce57620008ce8262000d24565b600080836001600160a01b031683604051620008eb919062000f6b565b600060405180830381855af49150503d806000811462000928576040519150601f19603f3d011682016040523d82523d6000602084013e6200092d565b606091505b50915091508162000855578051156200095c578060405162461bcd60e51b8152600401620004e6919062000f89565b604051633a18f8dd60e01b815260040160405180910390fd5b620009808162000d24565b6002820180546001600160a01b0390921660008181526001948501602090815260408220860185905594840183559182529290200180546001600160a01b0319169091179055565b6001600160a01b038216620009fc57604051622902d360e91b81526001600160e01b031982166004820152602401620004e6565b306001600160a01b0383160362000a335760405163069731c560e41b81526001600160e01b031982166004820152602401620004e6565b6001600160e01b03198116600090815260208481526040808320546001600160a01b0386168452600180880190935290832054600160a01b9091046001600160601b0316929162000a849162000fa5565b905080821462000b7d576001600160a01b0384166000908152600186016020526040812080548390811062000abd5762000abd62000d9a565b600091825260208083206008830401546001600160a01b038916845260018a019091526040909220805460079092166004026101000a90920460e01b92508291908590811062000b115762000b1162000d9a565b600091825260208083206008830401805463ffffffff60079094166004026101000a938402191660e09590951c929092029390931790556001600160e01b03199290921682528690526040902080546001600160a01b0316600160a01b6001600160601b038516021790555b6001600160a01b0384166000908152600186016020526040902080548062000ba95762000ba962000fc1565b60008281526020808220600860001990940193840401805463ffffffff600460078716026101000a0219169055919092556001600160e01b03198516825286905260408120819055819003620005a557600285015460009062000c0f9060019062000fa5565b6001600160a01b038616600090815260018089016020526040909120015490915080821462000cc557600087600201838154811062000c525762000c5262000d9a565b6000918252602090912001546002890180546001600160a01b03909216925082918490811062000c865762000c8662000d9a565b600091825260208083209190910180546001600160a01b0319166001600160a01b03948516179055929091168152600189810190925260409020018190555b8660020180548062000cdb5762000cdb62000fc1565b60008281526020808220830160001990810180546001600160a01b03191690559092019092556001600160a01b0388168252600189810190915260408220015550505050505050565b803b806200088b57604051633c11a9c560e21b815260040160405180910390fd5b80516001600160a01b038116811462000d5d57600080fd5b919050565b6000806040838503121562000d7657600080fd5b62000d818362000d45565b915062000d916020840162000d45565b90509250929050565b634e487b7160e01b600052603260045260246000fd5b634e487b7160e01b600052602160045260246000fd5b60005b8381101562000de357818101518382015260200162000dc9565b50506000910152565b6000815180845262000e0681602086016020860162000dc6565b601f01601f19169290920160200192915050565b60006060808301606084528087518083526080925060808601915060808160051b8701016020808b0160005b8481101562000ef257898403607f19018652815180516001600160a01b0316855283810151898601906003811062000e8e57634e487b7160e01b600052602160045260246000fd5b868601526040918201519186018a905281519081905290840190600090898701905b8083101562000edc5783516001600160e01b031916825292860192600192909201919086019062000eb0565b5097850197955050509082019060010162000e46565b50506001600160a01b038a1690880152868103604088015262000f16818962000dec565b9a9950505050505050505050565b634e487b7160e01b600052601160045260246000fd5b60006001600160601b038281166002600160601b0319810162000f615762000f6162000f24565b6001019392505050565b6000825162000f7f81846020870162000dc6565b9190910192915050565b60208152600062000f9e602083018462000dec565b9392505050565b8181038181111562000fbb5762000fbb62000f24565b92915050565b634e487b7160e01b600052603160045260246000fd5b6101e08062000fe76000396000f3fe6080604052600436106100225760003560e01c806354353f2f146100e557610029565b3661002957005b600080356001600160e01b03191681527fc8fcad8db84d3cc18b4c41d551ea0ee66dd599cde068d998e57d5e09332c131c602081905260409091205481906001600160a01b0316806100c15760405162461bcd60e51b815260206004820181905260248201527f4469616d6f6e643a2046756e6374696f6e20646f6573206e6f74206578697374604482015260640160405180910390fd5b3660008037600080366000845af43d6000803e8080156100e0573d6000f35b3d6000fd5b3480156100f157600080fd5b506100fa610110565b6040516101079190610130565b60405180910390f35b60606040518060600160405280602b8152602001610180602b9139905090565b60006020808352835180602085015260005b8181101561015e57858101830151858201604001528201610142565b506000604082860101526040601f19601f830116850101925050509291505056fe5448495320495320414e204558414d504c45204f4620414e20494d4d555441424c452046554e4354494f4ea264697066735822122078bec30f06c173da41c2eff46788ef23fe5aa23faee208df3c695f678bb6bb3364736f6c63430008180033c8fcad8db84d3cc18b4c41d551ea0ee66dd599cde068d998e57d5e09332c131c","linkReferences":{}},"methodIdentifiers":{"example()":"54353f2f"},"id":0}