{"abi":[{"type":"function","name":"allowance","inputs":[{"name":"_owner","type":"address","internalType":"address"},{"name":"_spender","type":"address","internalType":"address"}],"outputs":[{"name":"remaining_","type":"uint256","internalType":"uint256"}],"stateMutability":"nonpayable"},{"type":"function","name":"approve","inputs":[{"name":"_spender","type":"address","internalType":"address"},{"name":"_value","type":"uint256","internalType":"uint256"}],"outputs":[{"name":"success","type":"bool","internalType":"bool"}],"stateMutability":"nonpayable"},{"type":"function","name":"balanceOf","inputs":[{"name":"_owner","type":"address","internalType":"address"}],"outputs":[{"name":"balance","type":"uint256","internalType":"uint256"}],"stateMutability":"nonpayable"},{"type":"function","name":"burn","inputs":[{"name":"amount","type":"uint256","internalType":"uint256"}],"outputs":[],"stateMutability":"nonpayable"},{"type":"function","name":"decimals","inputs":[],"outputs":[{"name":"","type":"uint8","internalType":"uint8"}],"stateMutability":"nonpayable"},{"type":"function","name":"mintTo","inputs":[{"name":"_user","type":"address","internalType":"address"}],"outputs":[],"stateMutability":"nonpayable"},{"type":"function","name":"name","inputs":[],"outputs":[{"name":"","type":"string","internalType":"string"}],"stateMutability":"nonpayable"},{"type":"function","name":"symbol","inputs":[],"outputs":[{"name":"","type":"string","internalType":"string"}],"stateMutability":"nonpayable"},{"type":"function","name":"totalSupply","inputs":[],"outputs":[{"name":"","type":"uint256","internalType":"uint256"}],"stateMutability":"nonpayable"},{"type":"function","name":"transfer","inputs":[{"name":"_to","type":"address","internalType":"address"},{"name":"_value","type":"uint256","internalType":"uint256"}],"outputs":[{"name":"success","type":"bool","internalType":"bool"}],"stateMutability":"nonpayable"},{"type":"function","name":"transferFrom","inputs":[{"name":"_from","type":"address","internalType":"address"},{"name":"_to","type":"address","internalType":"address"},{"name":"_value","type":"uint256","internalType":"uint256"}],"outputs":[{"name":"success","type":"bool","internalType":"bool"}],"stateMutability":"nonpayable"},{"type":"event","name":"Approval","inputs":[{"name":"_owner","type":"address","indexed":true,"internalType":"address"},{"name":"_spender","type":"address","indexed":true,"internalType":"address"},{"name":"_value","type":"uint256","indexed":false,"internalType":"uint256"}],"anonymous":false},{"type":"event","name":"Transfer","inputs":[{"name":"_from","type":"address","indexed":true,"internalType":"address"},{"name":"_to","type":"address","indexed":true,"internalType":"address"},{"name":"_value","type":"uint256","indexed":false,"internalType":"uint256"}],"anonymous":false}],"bytecode":{"object":"0x608060405234801561001057600080fd5b5061098d806100206000396000f3fe608060405234801561001057600080fd5b50600436106100a95760003560e01c806342966c681161007157806342966c681461015b57806370a0823114610170578063755edd17146101ab57806395d89b41146101be578063a9059cbb146101c6578063dd62ed3e146101d957600080fd5b806306fdde03146100ae578063095ea7b3146100cc57806318160ddd146100ef57806323b872dd14610118578063313ce5671461012b575b600080fd5b6100b6610224565b6040516100c3919061079c565b60405180910390f35b6100df6100da366004610807565b6102ca565b60405190151581526020016100c3565b61010a600d80546001600160a01b0319163317905560025490565b6040519081526020016100c3565b6100df610126366004610831565b610347565b610149600d80546001600160a01b0319163317905560035460ff1690565b60405160ff90911681526020016100c3565b61016e61016936600461086d565b6104a1565b005b61010a61017e366004610886565b600d80546001600160a01b031916331790556001600160a01b031660009081526004602052604090205490565b61016e6101b9366004610886565b610590565b6100b6610649565b6100df6101d4366004610807565b61066c565b61010a6101e73660046108a8565b6001600160a01b039182166000908152600560209081526040808320939094168252919091522054600d80546001600160a01b0319163317905590565b600d80546001600160a01b031916331790556000805460609190610247906108db565b80601f0160208091040260200160405190810160405280929190818152602001828054610273906108db565b80156102c05780601f10610295576101008083540402835291602001916102c0565b820191906000526020600020905b8154815290600101906020018083116102a357829003601f168201915b5050505050905090565b3360008181526005602090815260408083206001600160a01b038716808552925280832085905551919290917f8c5be1e5ebec7d5bd14f71427d1e84f3dd0314c0f7b2291e5b200ac8c7c3b925906103259086815260200190565b60405180910390a35050600d80546001600160a01b0319163317905550600190565b6001600160a01b03831660008181526005602090815260408083203380855292528220549192148061039c57506001600160a01b03851660009081526005602090815260408083203384529091529020548311155b1561042a576103ab838261092b565b6001600160a01b03861660009081526005602090815260408083203384529091529020556103da858585610693565b336001600160a01b0386167f8c5be1e5ebec7d5bd14f71427d1e84f3dd0314c0f7b2291e5b200ac8c7c3b925610410868561092b565b60405190815260200160405180910390a360019150610487565b60405162461bcd60e51b815260206004820152602760248201527f45524332303a204e6f7420656e6f75676820616c6c6f77616e636520746f20746044820152663930b739b332b960c91b60648201526084015b60405180910390fd5b50600d80546001600160a01b031916331790559392505050565b336000908152600460205260409020548111156104f75760405162461bcd60e51b8152602060048201526014602482015273496e73756666696369656e742062616c616e636560601b604482015260640161047e565b336000908152600460205260408120805483929061051690849061092b565b9091555050600280546bffffffffffffffffffffffff8316919060009061053e90849061092b565b909155505060405181815260009033907fddf252ad1be2c89b69c2b068fc378daa952ba7f163c4a11628f55a4df523b3ef9060200160405180910390a350600d80546001600160a01b03191633179055565b6001600160a01b038116600090815260046020526040812080546a52b7d2dcc80cd2e4000000928392916105c5908490610944565b9091555050600280546bffffffffffffffffffffffff831691906000906105ed908490610944565b90915550506040518181526001600160a01b038316906000907fddf252ad1be2c89b69c2b068fc378daa952ba7f163c4a11628f55a4df523b3ef9060200160405180910390a35050600d80546001600160a01b03191633179055565b600d80546001600160a01b031916331790556001805460609190610247906108db565b6000610679338484610693565b5050600d80546001600160a01b0319163317905550600190565b33600090815260046020526040812054828110156106ff5760405162461bcd60e51b8152602060048201526024808201527f45524332303a204e6f7420656e6f75676820746f6b656e7320746f207472616e60448201526339b332b960e11b606482015260840161047e565b610709838261092b565b6001600160a01b0380871660009081526004850160205260408082209390935590861681529081208054859290610741908490610944565b92505081905550836001600160a01b0316856001600160a01b03167fddf252ad1be2c89b69c2b068fc378daa952ba7f163c4a11628f55a4df523b3ef8560405161078d91815260200190565b60405180910390a35050505050565b60006020808352835180602085015260005b818110156107ca578581018301518582016040015282016107ae565b506000604082860101526040601f19601f8301168501019250505092915050565b80356001600160a01b038116811461080257600080fd5b919050565b6000806040838503121561081a57600080fd5b610823836107eb565b946020939093013593505050565b60008060006060848603121561084657600080fd5b61084f846107eb565b925061085d602085016107eb565b9150604084013590509250925092565b60006020828403121561087f57600080fd5b5035919050565b60006020828403121561089857600080fd5b6108a1826107eb565b9392505050565b600080604083850312156108bb57600080fd5b6108c4836107eb565b91506108d2602084016107eb565b90509250929050565b600181811c908216806108ef57607f821691505b60208210810361090f57634e487b7160e01b600052602260045260246000fd5b50919050565b634e487b7160e01b600052601160045260246000fd5b8181038181111561093e5761093e610915565b92915050565b8082018082111561093e5761093e61091556fea264697066735822122060cd1da6594e3c31e38c6e123cd6a9997dd83d984d3ab87187bba3ee6d163a2f64736f6c63430008180033","linkReferences":{}},"methodIdentifiers":{"allowance(address,address)":"dd62ed3e","approve(address,uint256)":"095ea7b3","balanceOf(address)":"70a08231","burn(uint256)":"42966c68","decimals()":"313ce567","mintTo(address)":"755edd17","name()":"06fdde03","symbol()":"95d89b41","totalSupply()":"18160ddd","transfer(address,uint256)":"a9059cbb","transferFrom(address,address,uint256)":"23b872dd"},"id":3}