{"abi":[{"type":"constructor","inputs":[],"stateMutability":"nonpayable"},{"type":"function","name":"balanceOf","inputs":[{"name":"owner","type":"address","internalType":"address"}],"outputs":[{"name":"","type":"uint256","internalType":"uint256"}],"stateMutability":"view"},{"type":"function","name":"mint","inputs":[{"name":"recipient","type":"address","internalType":"address"}],"outputs":[{"name":"","type":"uint256","internalType":"uint256"}],"stateMutability":"nonpayable"},{"type":"function","name":"ownerOf","inputs":[{"name":"tokenId","type":"uint256","internalType":"uint256"}],"outputs":[{"name":"","type":"address","internalType":"address"}],"stateMutability":"view"},{"type":"function","name":"transferFrom","inputs":[{"name":"from","type":"address","internalType":"address"},{"name":"to","type":"address","internalType":"address"},{"name":"tokenId","type":"uint256","internalType":"uint256"}],"outputs":[],"stateMutability":"nonpayable"},{"type":"event","name":"Transfer","inputs":[{"name":"from","type":"address","indexed":true,"internalType":"address"},{"name":"to","type":"address","indexed":true,"internalType":"address"},{"name":"tokenId","type":"uint256","indexed":true,"internalType":"uint256"}],"anonymous":false}],"bytecode":{"object":"0x608060405234801561001057600080fd5b50610561806100206000396000f3fe608060405234801561001057600080fd5b506004361061004c5760003560e01c806323b872dd146100515780636352211e146100665780636a627842146100ac57806370a08231146100cd575b600080fd5b61006461005f366004610440565b6100f6565b005b61008f61007436600461047c565b6000908152600160205260409020546001600160a01b031690565b6040516001600160a01b0390911681526020015b60405180910390f35b6100bf6100ba366004610495565b61023f565b6040519081526020016100a3565b6100bf6100db366004610495565b6001600160a01b031660009081526002602052604090205490565b6000818152600160205260409020546001600160a01b0384811691161461015a5760405162461bcd60e51b81526020600482015260136024820152722737ba103a3432903a37b5b2b71037bbb732b960691b60448201526064015b60405180910390fd5b6001600160a01b0382166101b05760405162461bcd60e51b815260206004820152601f60248201527f43616e6e6f74207472616e7366657220746f207a65726f2061646472657373006044820152606401610151565b600081815260016020526040902080546001600160a01b0319166001600160a01b0384161790556101e183826102cf565b6001600160a01b03808316600081815260026020908152604080832080546001810182559084529183209091018590555184938716917fddf252ad1be2c89b69c2b068fc378daa952ba7f163c4a11628f55a4df523b3ef91a4505050565b60008054818061024e836104cd565b90915550506000805480825260016020818152604080852080546001600160a01b0319166001600160a01b038916908117909155808652600283528186208054948501815586529185209092018390559051919283927fddf252ad1be2c89b69c2b068fc378daa952ba7f163c4a11628f55a4df523b3ef908290a492915050565b6001600160a01b0382166000908152600260205260408120546102f4906001906104e6565b90506000805b6001600160a01b038516600090815260026020526040902054811015610367576001600160a01b0385166000908152600260205260409020805485919083908110610347576103476104ff565b90600052602060002001540361035f57809150610367565b6001016102fa565b506001600160a01b0384166000908152600260205260409020805483908110610392576103926104ff565b906000526020600020015460026000866001600160a01b03166001600160a01b0316815260200190815260200160002082815481106103d3576103d36104ff565b60009182526020808320909101929092556001600160a01b038616815260029091526040902080548061040857610408610515565b6001900381819060005260206000200160009055905550505050565b80356001600160a01b038116811461043b57600080fd5b919050565b60008060006060848603121561045557600080fd5b61045e84610424565b925061046c60208501610424565b9150604084013590509250925092565b60006020828403121561048e57600080fd5b5035919050565b6000602082840312156104a757600080fd5b6104b082610424565b9392505050565b634e487b7160e01b600052601160045260246000fd5b6000600182016104df576104df6104b7565b5060010190565b818103818111156104f9576104f96104b7565b92915050565b634e487b7160e01b600052603260045260246000fd5b634e487b7160e01b600052603160045260246000fdfea26469706673582212201a68079f100a4131a83fef6821204c4a9b23f113d32538c024687f956af36c8664736f6c63430008180033","linkReferences":{}},"methodIdentifiers":{"balanceOf(address)":"70a08231","mint(address)":"6a627842","ownerOf(uint256)":"6352211e","transferFrom(address,address,uint256)":"23b872dd"},"id":0}