{"abi":[{"type":"function","name":"closeAuction","inputs":[{"name":"auctionId","type":"uint256","internalType":"uint256"}],"outputs":[],"stateMutability":"nonpayable"},{"type":"function","name":"create1155Auction","inputs":[{"name":"tokenId","type":"uint256","internalType":"uint256"},{"name":"amounts","type":"uint256","internalType":"uint256"},{"name":"reservePrice","type":"uint256","internalType":"uint256"},{"name":"duration","type":"uint256","internalType":"uint256"},{"name":"startTime","type":"uint256","internalType":"uint256"},{"name":"tokenAddress","type":"address","internalType":"address"}],"outputs":[],"stateMutability":"nonpayable"},{"type":"function","name":"create721Auction","inputs":[{"name":"tokenId","type":"uint256","internalType":"uint256"},{"name":"reservePrice","type":"uint256","internalType":"uint256"},{"name":"duration","type":"uint256","internalType":"uint256"},{"name":"startTime","type":"uint256","internalType":"uint256"},{"name":"tokenAddress","type":"address","internalType":"address"}],"outputs":[],"stateMutability":"nonpayable"},{"type":"function","name":"getAllAuctions","inputs":[],"outputs":[{"name":"","type":"tuple[]","internalType":"struct LibAppStorage.Auction[]","components":[{"name":"seller","type":"address","internalType":"address"},{"name":"tokenId","type":"uint256","internalType":"uint256"},{"name":"tokenContract","type":"address","internalType":"address"},{"name":"startTime","type":"uint256","internalType":"uint256"},{"name":"duration","type":"uint256","internalType":"uint256"},{"name":"reservePrice","type":"uint256","internalType":"uint256"},{"name":"currentHighestBid","type":"uint256","internalType":"uint256"},{"name":"currentHighestBider","type":"address","internalType":"address"},{"name":"lastBidder","type":"address","internalType":"address"},{"name":"lastbid","type":"uint256","internalType":"uint256"},{"name":"started","type":"bool","internalType":"bool"},{"name":"ended","type":"bool","internalType":"bool"},{"name":"auctionCreator","type":"address","internalType":"address"},{"name":"endedTime","type":"uint256","internalType":"uint256"},{"name":"tokenType","type":"uint256","internalType":"uint256"},{"name":"tokenAmount","type":"uint256","internalType":"uint256"}]}],"stateMutability":"view"},{"type":"function","name":"getParticularAuction","inputs":[{"name":"auctionId","type":"uint256","internalType":"uint256"}],"outputs":[{"name":"","type":"tuple","internalType":"struct LibAppStorage.Auction","components":[{"name":"seller","type":"address","internalType":"address"},{"name":"tokenId","type":"uint256","internalType":"uint256"},{"name":"tokenContract","type":"address","internalType":"address"},{"name":"startTime","type":"uint256","internalType":"uint256"},{"name":"duration","type":"uint256","internalType":"uint256"},{"name":"reservePrice","type":"uint256","internalType":"uint256"},{"name":"currentHighestBid","type":"uint256","internalType":"uint256"},{"name":"currentHighestBider","type":"address","internalType":"address"},{"name":"lastBidder","type":"address","internalType":"address"},{"name":"lastbid","type":"uint256","internalType":"uint256"},{"name":"started","type":"bool","internalType":"bool"},{"name":"ended","type":"bool","internalType":"bool"},{"name":"auctionCreator","type":"address","internalType":"address"},{"name":"endedTime","type":"uint256","internalType":"uint256"},{"name":"tokenType","type":"uint256","internalType":"uint256"},{"name":"tokenAmount","type":"uint256","internalType":"uint256"}]}],"stateMutability":"view"},{"type":"event","name":"AuctionCreated","inputs":[{"name":"auctionId","type":"uint256","indexed":false,"internalType":"uint256"},{"name":"seller","type":"address","indexed":true,"internalType":"address"},{"name":"tokenId","type":"uint256","indexed":true,"internalType":"uint256"},{"name":"reservePrice","type":"uint256","indexed":false,"internalType":"uint256"},{"name":"duration","type":"uint256","indexed":false,"internalType":"uint256"}],"anonymous":false},{"type":"event","name":"BidSubmitted","inputs":[{"name":"bidAmount","type":"uint256","indexed":false,"internalType":"uint256"}],"anonymous":false},{"type":"event","name":"Transfer","inputs":[{"name":"_from","type":"address","indexed":true,"internalType":"address"},{"name":"_to","type":"address","indexed":true,"internalType":"address"},{"name":"_value","type":"uint256","indexed":false,"internalType":"uint256"}],"anonymous":false}],"bytecode":{"object":"0x608060405234801561001057600080fd5b50611529806100206000396000f3fe608060405234801561001057600080fd5b50600436106100575760003560e01c8063236ed8f31461005c57806324edbb97146100715780632ec1e9291461009a5780638c1f7f6a146100ad578063cbd2bdfd146100c0575b600080fd5b61006f61006a36600461120f565b6100d5565b005b61008461007f36600461120f565b610217565b604051610091919061130b565b60405180910390f35b61006f6100a8366004611338565b610306565b61006f6100bb36600461138d565b610955565b6100c8610f32565b60405161009191906113da565b600081815260126020526040902080546001600160a01b0316331461014d5760405162461bcd60e51b815260206004820152602360248201527f43616e6e6f7420656e6420616e6f7468657220706572736f6e2773204175637460448201526234b7b760e91b60648201526084015b60405180910390fd5b600a8101805461ff001916610100179055600c81015460010361018f576007810154600182015461018b9130916001600160a01b0390911690611058565b5050565b80600c015460020361018b57600281015460078201546001830154600d840154604051637921219560e11b81526001600160a01b039485169463f242432a946101e19430949190921692600401611429565b600060405180830381600087803b1580156101fb57600080fd5b505af115801561020f573d6000803e3d6000fd5b505050505050565b61021f611161565b5060009081526012602090815260409182902082516102008101845281546001600160a01b03908116825260018301549382019390935260028201548316938101939093526003810154606084015260048101546080840152600581015460a0840152600681015460c08401526007810154821660e084015260088101548216610100808501919091526009820154610120850152600a82015460ff80821615156101408701529181049091161515610160850152620100009004909116610180830152600b8101546101a0830152600c8101546101c0830152600d01546101e082015290565b600084116103625760405162461bcd60e51b8152602060048201526024808201527f52657365727665207072696365206d75737420626520677265617465722074686044820152630616e20360e41b6064820152608401610144565b603c8310156103c45760405162461bcd60e51b815260206004820152602860248201527f41756374696f6e206d757374206265206174206c65617374206f6e65206d696e604482015267757465206c6f6e6760c01b6064820152608401610144565b604051627eeac760e11b81523360048201526024810187905285906001600160a01b0383169062fdd58e90604401602060405180830381865afa15801561040f573d6000803e3d6000fd5b505050506040513d601f19601f820116820180604052508101906104339190611461565b10156104755760405162461bcd60e51b81526020600482015260116024820152704e6f7420656e6f75676820746f6b656e7360781b6044820152606401610144565b6011546000036104855760016011555b604051637921219560e11b81526001600160a01b0382169063f242432a906104b790339030908b908b90600401611429565b600060405180830381600087803b1580156104d157600080fd5b505af11580156104e5573d6000803e3d6000fd5b505050506104f1611161565b338152602081018790526001600160a01b0382166040820152606081018390526080810184905260a08101859052600060c0820181905260e0820181905261010082018190526101208201819052428411156101408301526101608201526105598484611490565b6101a0820152336101808201526105708484611490565b816101a00181815250506002816101c001818152505080600060120160008060110154815260200190815260200160002060008201518160000160006101000a8154816001600160a01b0302191690836001600160a01b031602179055506020820151816001015560408201518160020160006101000a8154816001600160a01b0302191690836001600160a01b03160217905550606082015181600301556080820151816004015560a0820151816005015560c0820151816006015560e08201518160070160006101000a8154816001600160a01b0302191690836001600160a01b031602179055506101008201518160080160006101000a8154816001600160a01b0302191690836001600160a01b03160217905550610120820151816009015561014082015181600a0160006101000a81548160ff02191690831515021790555061016082015181600a0160016101000a81548160ff02191690831515021790555061018082015181600a0160026101000a8154816001600160a01b0302191690836001600160a01b031602179055506101a082015181600b01556101c082015181600c01556101e082015181600d015590505060006014018190806001815401808255809150506001900390600052602060002090600e020160009091909190915060008201518160000160006101000a8154816001600160a01b0302191690836001600160a01b031602179055506020820151816001015560408201518160020160006101000a8154816001600160a01b0302191690836001600160a01b03160217905550606082015181600301556080820151816004015560a0820151816005015560c0820151816006015560e08201518160070160006101000a8154816001600160a01b0302191690836001600160a01b031602179055506101008201518160080160006101000a8154816001600160a01b0302191690836001600160a01b03160217905550610120820151816009015561014082015181600a0160006101000a81548160ff02191690831515021790555061016082015181600a0160016101000a81548160ff02191690831515021790555061018082015181600a0160026101000a8154816001600160a01b0302191690836001600160a01b031602179055506101a082015181600b01556101c082015181600c01556101e082015181600d0155505086336001600160a01b03167f05f9bf100dd0ca9f37f08e0526690286d357ed7d6c5a4ac29730440b6e2dfd62600060110154888860405161092f939291909283526020830191909152604082015260600190565b60405180910390a360118054906000610947836114a3565b919050555050505050505050565b600084116109985760405162461bcd60e51b815260206004820152601060248201526f6e6f20667265652061756374696f6e7360801b6044820152606401610144565b603c8310156109fa5760405162461bcd60e51b815260206004820152602860248201527f61756374696f6e206d757374206265206174206c65617374206f6e65206d696e604482015267757465206c6f6e6760c01b6064820152608401610144565b6040516331a9108f60e11b81526004810186905233906001600160a01b03831690636352211e90602401602060405180830381865afa158015610a41573d6000803e3d6000fd5b505050506040513d601f19601f82011682018060405250810190610a6591906114bc565b6001600160a01b031614610aac5760405162461bcd60e51b815260206004820152600e60248201526d2737ba103cb7bab9103a37b5b2b760911b6044820152606401610144565b601154600003610abc5760016011555b610ac7333087611058565b610acf611161565b338152602081018690526001600160a01b0382166040820152606081018390526080810184905260a08101859052600060c0820181905260e082018190526101008201819052610120820181905242841115610140830152610160820152610b378484611490565b6101a082015233610180820152610b4e8484611490565b816101a00181815250506001816101c001818152505080600060120160008060110154815260200190815260200160002060008201518160000160006101000a8154816001600160a01b0302191690836001600160a01b031602179055506020820151816001015560408201518160020160006101000a8154816001600160a01b0302191690836001600160a01b03160217905550606082015181600301556080820151816004015560a0820151816005015560c0820151816006015560e08201518160070160006101000a8154816001600160a01b0302191690836001600160a01b031602179055506101008201518160080160006101000a8154816001600160a01b0302191690836001600160a01b03160217905550610120820151816009015561014082015181600a0160006101000a81548160ff02191690831515021790555061016082015181600a0160016101000a81548160ff02191690831515021790555061018082015181600a0160026101000a8154816001600160a01b0302191690836001600160a01b031602179055506101a082015181600b01556101c082015181600c01556101e082015181600d015590505060006014018190806001815401808255809150506001900390600052602060002090600e020160009091909190915060008201518160000160006101000a8154816001600160a01b0302191690836001600160a01b031602179055506020820151816001015560408201518160020160006101000a8154816001600160a01b0302191690836001600160a01b03160217905550606082015181600301556080820151816004015560a0820151816005015560c0820151816006015560e08201518160070160006101000a8154816001600160a01b0302191690836001600160a01b031602179055506101008201518160080160006101000a8154816001600160a01b0302191690836001600160a01b03160217905550610120820151816009015561014082015181600a0160006101000a81548160ff02191690831515021790555061016082015181600a0160016101000a81548160ff02191690831515021790555061018082015181600a0160026101000a8154816001600160a01b0302191690836001600160a01b031602179055506101a082015181600b01556101c082015181600c01556101e082015181600d0155505085336001600160a01b03167f05f9bf100dd0ca9f37f08e0526690286d357ed7d6c5a4ac29730440b6e2dfd626000601101548888604051610f0d939291909283526020830191909152604082015260600190565b60405180910390a360118054906000610f25836114a3565b9190505550505050505050565b60606000601401805480602002602001604051908101604052809291908181526020016000905b8282101561104f5760008481526020908190206040805161020081018252600e860290920180546001600160a01b0390811684526001808301548587015260028301548216938501939093526003820154606085015260048201546080850152600582015460a0850152600682015460c08501526007820154811660e085015260088201548116610100808601919091526009830154610120860152600a83015460ff8082161515610140880152918104909116151561016086015262010000900416610180840152600b8101546101a0840152600c8101546101c0840152600d01546101e08301529083529092019101610f59565b50505050905090565b33600090815260046020526040812054828110156110c45760405162461bcd60e51b8152602060048201526024808201527f45524332303a204e6f7420656e6f75676820746f6b656e7320746f207472616e60448201526339b332b960e11b6064820152608401610144565b6110ce83826114e0565b6001600160a01b0380871660009081526004850160205260408082209390935590861681529081208054859290611106908490611490565b92505081905550836001600160a01b0316856001600160a01b03167fddf252ad1be2c89b69c2b068fc378daa952ba7f163c4a11628f55a4df523b3ef8560405161115291815260200190565b60405180910390a35050505050565b60405180610200016040528060006001600160a01b031681526020016000815260200160006001600160a01b031681526020016000815260200160008152602001600081526020016000815260200160006001600160a01b0316815260200160006001600160a01b031681526020016000815260200160001515815260200160001515815260200160006001600160a01b031681526020016000815260200160008152602001600081525090565b60006020828403121561122157600080fd5b5035919050565b80516001600160a01b0316825260208101516020830152604081015161125960408401826001600160a01b03169052565b50606081015160608301526080810151608083015260a081015160a083015260c081015160c083015260e081015161129c60e08401826001600160a01b03169052565b50610100818101516001600160a01b03908116918401919091526101208083015190840152610140808301511515908401526101608083015115159084015261018080830151909116908301526101a080820151908301526101c080820151908301526101e090810151910152565b610200810161131a8284611228565b92915050565b6001600160a01b038116811461133557600080fd5b50565b60008060008060008060c0878903121561135157600080fd5b863595506020870135945060408701359350606087013592506080870135915060a087013561137f81611320565b809150509295509295509295565b600080600080600060a086880312156113a557600080fd5b8535945060208601359350604086013592506060860135915060808601356113cc81611320565b809150509295509295909350565b6020808252825182820181905260009190848201906040850190845b8181101561141d57611409838551611228565b9284019261020092909201916001016113f6565b50909695505050505050565b6001600160a01b0394851681529290931660208301526040820152606081019190915260a06080820181905260009082015260c00190565b60006020828403121561147357600080fd5b5051919050565b634e487b7160e01b600052601160045260246000fd5b8082018082111561131a5761131a61147a565b6000600182016114b5576114b561147a565b5060010190565b6000602082840312156114ce57600080fd5b81516114d981611320565b9392505050565b8181038181111561131a5761131a61147a56fea264697066735822122026f9d511286adec73fc09a4a720aa7206e348e678e94db1601d6912e672b4e9c64736f6c63430008180033","linkReferences":{}},"methodIdentifiers":{"closeAuction(uint256)":"236ed8f3","create1155Auction(uint256,uint256,uint256,uint256,uint256,address)":"2ec1e929","create721Auction(uint256,uint256,uint256,uint256,address)":"8c1f7f6a","getAllAuctions()":"cbd2bdfd","getParticularAuction(uint256)":"24edbb97"},"id":4}