{"abi":[{"type":"function","name":"bid","inputs":[{"name":"from","type":"address","internalType":"address"},{"name":"_auctionId","type":"uint256","internalType":"uint256"},{"name":"_bidAmount","type":"uint256","internalType":"uint256"},{"name":"randomDOA","type":"address","internalType":"address"},{"name":"lastUser","type":"address","internalType":"address"}],"outputs":[{"name":"","type":"tuple","internalType":"struct LibAppStorage.Auction","components":[{"name":"seller","type":"address","internalType":"address"},{"name":"tokenId","type":"uint256","internalType":"uint256"},{"name":"tokenContract","type":"address","internalType":"address"},{"name":"startTime","type":"uint256","internalType":"uint256"},{"name":"duration","type":"uint256","internalType":"uint256"},{"name":"reservePrice","type":"uint256","internalType":"uint256"},{"name":"currentHighestBid","type":"uint256","internalType":"uint256"},{"name":"currentHighestBider","type":"address","internalType":"address"},{"name":"started","type":"bool","internalType":"bool"},{"name":"ended","type":"bool","internalType":"bool"},{"name":"auctionCreator","type":"address","internalType":"address"},{"name":"endedTime","type":"uint256","internalType":"uint256"},{"name":"tokenType","type":"uint256","internalType":"uint256"},{"name":"tokenAmount","type":"uint256","internalType":"uint256"}]},{"name":"","type":"uint256","internalType":"uint256"}],"stateMutability":"nonpayable"},{"type":"function","name":"closeAuction","inputs":[{"name":"auctionId","type":"uint256","internalType":"uint256"}],"outputs":[],"stateMutability":"nonpayable"},{"type":"function","name":"create1155Auction","inputs":[{"name":"tokenId","type":"uint256","internalType":"uint256"},{"name":"amounts","type":"uint256","internalType":"uint256"},{"name":"reservePrice","type":"uint256","internalType":"uint256"},{"name":"duration","type":"uint256","internalType":"uint256"},{"name":"startTime","type":"uint256","internalType":"uint256"},{"name":"tokenAddress","type":"address","internalType":"address"}],"outputs":[],"stateMutability":"nonpayable"},{"type":"function","name":"create721Auction","inputs":[{"name":"tokenId","type":"uint256","internalType":"uint256"},{"name":"reservePrice","type":"uint256","internalType":"uint256"},{"name":"duration","type":"uint256","internalType":"uint256"},{"name":"startTime","type":"uint256","internalType":"uint256"},{"name":"tokenAddress","type":"address","internalType":"address"}],"outputs":[],"stateMutability":"nonpayable"},{"type":"function","name":"getAllAuctions","inputs":[],"outputs":[{"name":"","type":"tuple[]","internalType":"struct LibAppStorage.Auction[]","components":[{"name":"seller","type":"address","internalType":"address"},{"name":"tokenId","type":"uint256","internalType":"uint256"},{"name":"tokenContract","type":"address","internalType":"address"},{"name":"startTime","type":"uint256","internalType":"uint256"},{"name":"duration","type":"uint256","internalType":"uint256"},{"name":"reservePrice","type":"uint256","internalType":"uint256"},{"name":"currentHighestBid","type":"uint256","internalType":"uint256"},{"name":"currentHighestBider","type":"address","internalType":"address"},{"name":"started","type":"bool","internalType":"bool"},{"name":"ended","type":"bool","internalType":"bool"},{"name":"auctionCreator","type":"address","internalType":"address"},{"name":"endedTime","type":"uint256","internalType":"uint256"},{"name":"tokenType","type":"uint256","internalType":"uint256"},{"name":"tokenAmount","type":"uint256","internalType":"uint256"}]}],"stateMutability":"view"},{"type":"function","name":"getParticularAuction","inputs":[{"name":"auctionId","type":"uint256","internalType":"uint256"}],"outputs":[{"name":"","type":"tuple","internalType":"struct LibAppStorage.Auction","components":[{"name":"seller","type":"address","internalType":"address"},{"name":"tokenId","type":"uint256","internalType":"uint256"},{"name":"tokenContract","type":"address","internalType":"address"},{"name":"startTime","type":"uint256","internalType":"uint256"},{"name":"duration","type":"uint256","internalType":"uint256"},{"name":"reservePrice","type":"uint256","internalType":"uint256"},{"name":"currentHighestBid","type":"uint256","internalType":"uint256"},{"name":"currentHighestBider","type":"address","internalType":"address"},{"name":"started","type":"bool","internalType":"bool"},{"name":"ended","type":"bool","internalType":"bool"},{"name":"auctionCreator","type":"address","internalType":"address"},{"name":"endedTime","type":"uint256","internalType":"uint256"},{"name":"tokenType","type":"uint256","internalType":"uint256"},{"name":"tokenAmount","type":"uint256","internalType":"uint256"}]}],"stateMutability":"view"},{"type":"event","name":"AuctionCreated","inputs":[{"name":"auctionId","type":"uint256","indexed":false,"internalType":"uint256"},{"name":"seller","type":"address","indexed":true,"internalType":"address"},{"name":"tokenId","type":"uint256","indexed":true,"internalType":"uint256"},{"name":"reservePrice","type":"uint256","indexed":false,"internalType":"uint256"},{"name":"duration","type":"uint256","indexed":false,"internalType":"uint256"}],"anonymous":false},{"type":"event","name":"BidSubmitted","inputs":[{"name":"bidAmount","type":"uint256","indexed":false,"internalType":"uint256"}],"anonymous":false},{"type":"event","name":"Transfer","inputs":[{"name":"_from","type":"address","indexed":true,"internalType":"address"},{"name":"_to","type":"address","indexed":true,"internalType":"address"},{"name":"_value","type":"uint256","indexed":false,"internalType":"uint256"}],"anonymous":false}],"bytecode":{"object":"0x608060405234801561001057600080fd5b50611693806100206000396000f3fe608060405234801561001057600080fd5b50600436106100625760003560e01c8063236ed8f31461006757806324edbb971461007c5780632ec1e929146100a55780635670872e146100b85780638c1f7f6a146100d9578063cbd2bdfd146100ec575b600080fd5b61007a61007536600461131e565b610101565b005b61008f61008a36600461131e565b610247565b60405161009c91906113fc565b60405180910390f35b61007a6100b336600461142d565b61031e565b6100cb6100c636600461147e565b6108eb565b60405161009c9291906114d5565b61007a6100e73660046114f2565b610bb7565b6100f4611060565b60405161009c919061152f565b600081815260126020526040902080546001600160a01b031633146101795760405162461bcd60e51b815260206004820152602360248201527f43616e6e6f7420656e6420616e6f7468657220706572736f6e2773204175637460448201526234b7b760e91b60648201526084015b60405180910390fd5b60078101805460ff60a81b1916600160a81b179055600a8101546001036101bf57600781015460018201546101bb9130916001600160a01b039091169061116e565b5050565b80600a01546002036101bb57600281015460078201546001830154600b840154604051637921219560e11b81526001600160a01b039485169463f242432a94610211943094919092169260040161157e565b600060405180830381600087803b15801561022b57600080fd5b505af115801561023f573d6000803e3d6000fd5b505050505050565b61024f611287565b5060009081526012602090815260409182902082516101c08101845281546001600160a01b03908116825260018301549382019390935260028201548316938101939093526003810154606084015260048101546080840152600581015460a0840152600681015460c0840152600781015480831660e085015260ff600160a01b820481161515610100860152600160a81b90910416151561012084015260088101549091166101408301526009810154610160830152600a810154610180830152600b01546101a082015290565b6000841161037a5760405162461bcd60e51b8152602060048201526024808201527f52657365727665207072696365206d75737420626520677265617465722074686044820152630616e20360e41b6064820152608401610170565b603c8310156103dc5760405162461bcd60e51b815260206004820152602860248201527f41756374696f6e206d757374206265206174206c65617374206f6e65206d696e604482015267757465206c6f6e6760c01b6064820152608401610170565b604051627eeac760e11b81523360048201526024810187905285906001600160a01b0383169062fdd58e90604401602060405180830381865afa158015610427573d6000803e3d6000fd5b505050506040513d601f19601f8201168201806040525081019061044b91906115b6565b101561048d5760405162461bcd60e51b81526020600482015260116024820152704e6f7420656e6f75676820746f6b656e7360781b6044820152606401610170565b60115460000361049d5760016011555b604051637921219560e11b81526001600160a01b0382169063f242432a906104cf90339030908b908b9060040161157e565b600060405180830381600087803b1580156104e957600080fd5b505af11580156104fd573d6000803e3d6000fd5b50505050610509611287565b338152602081018790526001600160a01b0382166040820152606081018390526080810184905260a08101859052600060c0820181905260e082018190524284111561010083015261012082015261056184846115e5565b6101608201523361014082015261057884846115e5565b8161016001818152505060028161018001818152505080600060120160008060110154815260200190815260200160002060008201518160000160006101000a8154816001600160a01b0302191690836001600160a01b031602179055506020820151816001015560408201518160020160006101000a8154816001600160a01b0302191690836001600160a01b03160217905550606082015181600301556080820151816004015560a0820151816005015560c0820151816006015560e08201518160070160006101000a8154816001600160a01b0302191690836001600160a01b031602179055506101008201518160070160146101000a81548160ff0219169083151502179055506101208201518160070160156101000a81548160ff0219169083151502179055506101408201518160080160006101000a8154816001600160a01b0302191690836001600160a01b03160217905550610160820151816009015561018082015181600a01556101a082015181600b015590505060006014018190806001815401808255809150506001900390600052602060002090600c020160009091909190915060008201518160000160006101000a8154816001600160a01b0302191690836001600160a01b031602179055506020820151816001015560408201518160020160006101000a8154816001600160a01b0302191690836001600160a01b03160217905550606082015181600301556080820151816004015560a0820151816005015560c0820151816006015560e08201518160070160006101000a8154816001600160a01b0302191690836001600160a01b031602179055506101008201518160070160146101000a81548160ff0219169083151502179055506101208201518160070160156101000a81548160ff0219169083151502179055506101408201518160080160006101000a8154816001600160a01b0302191690836001600160a01b03160217905550610160820151816009015561018082015181600a01556101a082015181600b0155505086336001600160a01b03167f05f9bf100dd0ca9f37f08e0526690286d357ed7d6c5a4ac29730440b6e2dfd6260006011015488886040516108c5939291909283526020830191909152604082015260600190565b60405180910390a3601180549060006108dd836115f8565b919050555050505050505050565b6108f3611287565b600080606461090387600a611611565b61090d9190611628565b90506000606461091e88605a611611565b6109289190611628565b905060006064610939846014611611565b6109439190611628565b90506000606461095485600a611611565b61095e9190611628565b90506000606461096f86601e611611565b6109799190611628565b90506000606461098a876014611611565b6109949190611628565b9050600060646109a5886014611611565b6109af9190611628565b905060008d11610a0d5760405162461bcd60e51b8152602060048201526024808201527f41756374696f6e204944206d7573742062652067726561746572207468616e206044820152637a65726f60e01b6064820152608401610170565b60008d81526012602090815260409182902082516101c08101845281546001600160a01b03908116825260018301549382019390935260028201548316938101939093526003810154606084015260048101546080840152600581015460a0840152600681015460c0840152600781015480831660e0850181905260ff600160a01b830481161515610100870152600160a81b909204909116151561012085015260088201549092166101408401526009810154610160840152600a810154610180840152600b01546101a083015215801590610aed57508060c001518d115b15610b5a57610afd8f308961116e565b610b088f8d8861116e565b610b178f8260e001518661116e565b601654610b259084906115e5565b601655610b338f8c8761116e565b610b3f8f600084611277565b6001600160a01b038f1660e082015260c081018d9052610b9f565b60e08101516001600160a01b0316158015610b7857508060c001518d115b15610b9f57610b888f308961116e565b6001600160a01b038f1660e082015260c081018d90525b601654909f909e509c50505050505050505050505050565b60008411610bfa5760405162461bcd60e51b815260206004820152601060248201526f6e6f20667265652061756374696f6e7360801b6044820152606401610170565b603c831015610c5c5760405162461bcd60e51b815260206004820152602860248201527f61756374696f6e206d757374206265206174206c65617374206f6e65206d696e604482015267757465206c6f6e6760c01b6064820152608401610170565b601154600003610c6c5760016011555b610c7733308761116e565b610c7f611287565b338152602081018690526001600160a01b0382166040820152606081018390526080810184905260a08101859052600060c0820181905260e0820181905242841115610100830152610120820152610cd784846115e5565b61016082015233610140820152610cee84846115e5565b8161016001818152505060018161018001818152505080600060120160008060110154815260200190815260200160002060008201518160000160006101000a8154816001600160a01b0302191690836001600160a01b031602179055506020820151816001015560408201518160020160006101000a8154816001600160a01b0302191690836001600160a01b03160217905550606082015181600301556080820151816004015560a0820151816005015560c0820151816006015560e08201518160070160006101000a8154816001600160a01b0302191690836001600160a01b031602179055506101008201518160070160146101000a81548160ff0219169083151502179055506101208201518160070160156101000a81548160ff0219169083151502179055506101408201518160080160006101000a8154816001600160a01b0302191690836001600160a01b03160217905550610160820151816009015561018082015181600a01556101a082015181600b015590505060006014018190806001815401808255809150506001900390600052602060002090600c020160009091909190915060008201518160000160006101000a8154816001600160a01b0302191690836001600160a01b031602179055506020820151816001015560408201518160020160006101000a8154816001600160a01b0302191690836001600160a01b03160217905550606082015181600301556080820151816004015560a0820151816005015560c0820151816006015560e08201518160070160006101000a8154816001600160a01b0302191690836001600160a01b031602179055506101008201518160070160146101000a81548160ff0219169083151502179055506101208201518160070160156101000a81548160ff0219169083151502179055506101408201518160080160006101000a8154816001600160a01b0302191690836001600160a01b03160217905550610160820151816009015561018082015181600a01556101a082015181600b0155505085336001600160a01b03167f05f9bf100dd0ca9f37f08e0526690286d357ed7d6c5a4ac29730440b6e2dfd62600060110154888860405161103b939291909283526020830191909152604082015260600190565b60405180910390a360118054906000611053836115f8565b9190505550505050505050565b60606000601401805480602002602001604051908101604052809291908181526020016000905b82821015611165576000848152602090819020604080516101c081018252600c860290920180546001600160a01b0390811684526001808301548587015260028301548216938501939093526003820154606085015260048201546080850152600582015460a0850152600682015460c0850152600782015480821660e086015260ff600160a01b820481161515610100870152600160a81b9091041615156101208501526008820154166101408401526009810154610160840152600a810154610180840152600b01546101a08301529083529092019101611087565b50505050905090565b33600090815260046020526040812054828110156111da5760405162461bcd60e51b8152602060048201526024808201527f45524332303a204e6f7420656e6f75676820746f6b656e7320746f207472616e60448201526339b332b960e11b6064820152608401610170565b6111e4838261164a565b6001600160a01b038087166000908152600485016020526040808220939093559086168152908120805485929061121c9084906115e5565b92505081905550836001600160a01b0316856001600160a01b03167fddf252ad1be2c89b69c2b068fc378daa952ba7f163c4a11628f55a4df523b3ef8560405161126891815260200190565b60405180910390a35050505050565b61128283838361116e565b505050565b604051806101c0016040528060006001600160a01b031681526020016000815260200160006001600160a01b031681526020016000815260200160008152602001600081526020016000815260200160006001600160a01b0316815260200160001515815260200160001515815260200160006001600160a01b031681526020016000815260200160008152602001600081525090565b60006020828403121561133057600080fd5b5035919050565b80516001600160a01b0316825260208101516020830152604081015161136860408401826001600160a01b03169052565b50606081015160608301526080810151608083015260a081015160a083015260c081015160c083015260e08101516113ab60e08401826001600160a01b03169052565b506101008181015115159083015261012080820151151590830152610140808201516001600160a01b031690830152610160808201519083015261018080820151908301526101a090810151910152565b6101c0810161140b8284611337565b92915050565b80356001600160a01b038116811461142857600080fd5b919050565b60008060008060008060c0878903121561144657600080fd5b863595506020870135945060408701359350606087013592506080870135915061147260a08801611411565b90509295509295509295565b600080600080600060a0868803121561149657600080fd5b61149f86611411565b945060208601359350604086013592506114bb60608701611411565b91506114c960808701611411565b90509295509295909350565b6101e081016114e48285611337565b826101c08301529392505050565b600080600080600060a0868803121561150a57600080fd5b853594506020860135935060408601359250606086013591506114c960808701611411565b6020808252825182820181905260009190848201906040850190845b818110156115725761155e838551611337565b928401926101c0929092019160010161154b565b50909695505050505050565b6001600160a01b0394851681529290931660208301526040820152606081019190915260a06080820181905260009082015260c00190565b6000602082840312156115c857600080fd5b5051919050565b634e487b7160e01b600052601160045260246000fd5b8082018082111561140b5761140b6115cf565b60006001820161160a5761160a6115cf565b5060010190565b808202811582820484141761140b5761140b6115cf565b60008261164557634e487b7160e01b600052601260045260246000fd5b500490565b8181038181111561140b5761140b6115cf56fea26469706673582212207ae5998abf49ad2e32961e9461338f5101fae7a58b75a6348d1cc0a8347cb2e264736f6c63430008180033","linkReferences":{}},"methodIdentifiers":{"bid(address,uint256,uint256,address,address)":"5670872e","closeAuction(uint256)":"236ed8f3","create1155Auction(uint256,uint256,uint256,uint256,uint256,address)":"2ec1e929","create721Auction(uint256,uint256,uint256,uint256,address)":"8c1f7f6a","getAllAuctions()":"cbd2bdfd","getParticularAuction(uint256)":"24edbb97"},"id":4}