{"abi":[{"type":"function","name":"bid","inputs":[{"name":"from","type":"address","internalType":"address"},{"name":"_auctionId","type":"uint256","internalType":"uint256"},{"name":"_bidAmount","type":"uint256","internalType":"uint256"},{"name":"randomDOA","type":"address","internalType":"address"},{"name":"lastUser","type":"address","internalType":"address"}],"outputs":[{"name":"","type":"tuple","internalType":"struct LibAppStorage.Auction","components":[{"name":"seller","type":"address","internalType":"address"},{"name":"tokenId","type":"uint256","internalType":"uint256"},{"name":"tokenContract","type":"address","internalType":"address"},{"name":"startTime","type":"uint256","internalType":"uint256"},{"name":"duration","type":"uint256","internalType":"uint256"},{"name":"reservePrice","type":"uint256","internalType":"uint256"},{"name":"currentHighestBid","type":"uint256","internalType":"uint256"},{"name":"currentHighestBider","type":"address","internalType":"address"},{"name":"started","type":"bool","internalType":"bool"},{"name":"ended","type":"bool","internalType":"bool"},{"name":"auctionCreator","type":"address","internalType":"address"},{"name":"endedTime","type":"uint256","internalType":"uint256"},{"name":"tokenType","type":"uint256","internalType":"uint256"},{"name":"tokenAmount","type":"uint256","internalType":"uint256"}]},{"name":"","type":"uint256","internalType":"uint256"}],"stateMutability":"nonpayable"},{"type":"function","name":"closeAuction","inputs":[{"name":"auctionId","type":"uint256","internalType":"uint256"}],"outputs":[],"stateMutability":"nonpayable"},{"type":"function","name":"create1155Auction","inputs":[{"name":"tokenId","type":"uint256","internalType":"uint256"},{"name":"amounts","type":"uint256","internalType":"uint256"},{"name":"reservePrice","type":"uint256","internalType":"uint256"},{"name":"duration","type":"uint256","internalType":"uint256"},{"name":"startTime","type":"uint256","internalType":"uint256"},{"name":"tokenAddress","type":"address","internalType":"address"}],"outputs":[],"stateMutability":"nonpayable"},{"type":"function","name":"create721Auction","inputs":[{"name":"tokenId","type":"uint256","internalType":"uint256"},{"name":"reservePrice","type":"uint256","internalType":"uint256"},{"name":"duration","type":"uint256","internalType":"uint256"},{"name":"startTime","type":"uint256","internalType":"uint256"},{"name":"tokenAddress","type":"address","internalType":"address"}],"outputs":[],"stateMutability":"nonpayable"},{"type":"function","name":"getAllAuctions","inputs":[],"outputs":[{"name":"","type":"tuple[]","internalType":"struct LibAppStorage.Auction[]","components":[{"name":"seller","type":"address","internalType":"address"},{"name":"tokenId","type":"uint256","internalType":"uint256"},{"name":"tokenContract","type":"address","internalType":"address"},{"name":"startTime","type":"uint256","internalType":"uint256"},{"name":"duration","type":"uint256","internalType":"uint256"},{"name":"reservePrice","type":"uint256","internalType":"uint256"},{"name":"currentHighestBid","type":"uint256","internalType":"uint256"},{"name":"currentHighestBider","type":"address","internalType":"address"},{"name":"started","type":"bool","internalType":"bool"},{"name":"ended","type":"bool","internalType":"bool"},{"name":"auctionCreator","type":"address","internalType":"address"},{"name":"endedTime","type":"uint256","internalType":"uint256"},{"name":"tokenType","type":"uint256","internalType":"uint256"},{"name":"tokenAmount","type":"uint256","internalType":"uint256"}]}],"stateMutability":"view"},{"type":"function","name":"getParticularAuction","inputs":[{"name":"auctionId","type":"uint256","internalType":"uint256"}],"outputs":[{"name":"","type":"tuple","internalType":"struct LibAppStorage.Auction","components":[{"name":"seller","type":"address","internalType":"address"},{"name":"tokenId","type":"uint256","internalType":"uint256"},{"name":"tokenContract","type":"address","internalType":"address"},{"name":"startTime","type":"uint256","internalType":"uint256"},{"name":"duration","type":"uint256","internalType":"uint256"},{"name":"reservePrice","type":"uint256","internalType":"uint256"},{"name":"currentHighestBid","type":"uint256","internalType":"uint256"},{"name":"currentHighestBider","type":"address","internalType":"address"},{"name":"started","type":"bool","internalType":"bool"},{"name":"ended","type":"bool","internalType":"bool"},{"name":"auctionCreator","type":"address","internalType":"address"},{"name":"endedTime","type":"uint256","internalType":"uint256"},{"name":"tokenType","type":"uint256","internalType":"uint256"},{"name":"tokenAmount","type":"uint256","internalType":"uint256"}]}],"stateMutability":"view"},{"type":"event","name":"AuctionCreated","inputs":[{"name":"auctionId","type":"uint256","indexed":false,"internalType":"uint256"},{"name":"seller","type":"address","indexed":true,"internalType":"address"},{"name":"tokenId","type":"uint256","indexed":true,"internalType":"uint256"},{"name":"reservePrice","type":"uint256","indexed":false,"internalType":"uint256"},{"name":"duration","type":"uint256","indexed":false,"internalType":"uint256"}],"anonymous":false},{"type":"event","name":"BidSubmitted","inputs":[{"name":"bidAmount","type":"uint256","indexed":false,"internalType":"uint256"}],"anonymous":false},{"type":"event","name":"Transfer","inputs":[{"name":"_from","type":"address","indexed":true,"internalType":"address"},{"name":"_to","type":"address","indexed":true,"internalType":"address"},{"name":"_value","type":"uint256","indexed":false,"internalType":"uint256"}],"anonymous":false}],"bytecode":{"object":"0x608060405234801561001057600080fd5b506116e7806100206000396000f3fe608060405234801561001057600080fd5b50600436106100625760003560e01c8063236ed8f31461006757806324edbb971461007c5780632ec1e929146100a55780635670872e146100b85780638c1f7f6a146100d9578063cbd2bdfd146100ec575b600080fd5b61007a610075366004611372565b610101565b005b61008f61008a366004611372565b610247565b60405161009c9190611450565b60405180910390f35b61007a6100b3366004611481565b61031e565b6100cb6100c63660046114d2565b6108eb565b60405161009c929190611529565b61007a6100e7366004611546565b610c0b565b6100f46110b4565b60405161009c9190611583565b600081815260126020526040902080546001600160a01b031633146101795760405162461bcd60e51b815260206004820152602360248201527f43616e6e6f7420656e6420616e6f7468657220706572736f6e2773204175637460448201526234b7b760e91b60648201526084015b60405180910390fd5b60078101805460ff60a81b1916600160a81b179055600a8101546001036101bf57600781015460018201546101bb9130916001600160a01b03909116906111c2565b5050565b80600a01546002036101bb57600281015460078201546001830154600b840154604051637921219560e11b81526001600160a01b039485169463f242432a9461021194309491909216926004016115d2565b600060405180830381600087803b15801561022b57600080fd5b505af115801561023f573d6000803e3d6000fd5b505050505050565b61024f6112db565b5060009081526012602090815260409182902082516101c08101845281546001600160a01b03908116825260018301549382019390935260028201548316938101939093526003810154606084015260048101546080840152600581015460a0840152600681015460c0840152600781015480831660e085015260ff600160a01b820481161515610100860152600160a81b90910416151561012084015260088101549091166101408301526009810154610160830152600a810154610180830152600b01546101a082015290565b6000841161037a5760405162461bcd60e51b8152602060048201526024808201527f52657365727665207072696365206d75737420626520677265617465722074686044820152630616e20360e41b6064820152608401610170565b603c8310156103dc5760405162461bcd60e51b815260206004820152602860248201527f41756374696f6e206d757374206265206174206c65617374206f6e65206d696e604482015267757465206c6f6e6760c01b6064820152608401610170565b604051627eeac760e11b81523360048201526024810187905285906001600160a01b0383169062fdd58e90604401602060405180830381865afa158015610427573d6000803e3d6000fd5b505050506040513d601f19601f8201168201806040525081019061044b919061160a565b101561048d5760405162461bcd60e51b81526020600482015260116024820152704e6f7420656e6f75676820746f6b656e7360781b6044820152606401610170565b60115460000361049d5760016011555b604051637921219560e11b81526001600160a01b0382169063f242432a906104cf90339030908b908b906004016115d2565b600060405180830381600087803b1580156104e957600080fd5b505af11580156104fd573d6000803e3d6000fd5b505050506105096112db565b338152602081018790526001600160a01b0382166040820152606081018390526080810184905260a08101859052600060c0820181905260e08201819052428411156101008301526101208201526105618484611639565b610160820152336101408201526105788484611639565b8161016001818152505060028161018001818152505080600060120160008060110154815260200190815260200160002060008201518160000160006101000a8154816001600160a01b0302191690836001600160a01b031602179055506020820151816001015560408201518160020160006101000a8154816001600160a01b0302191690836001600160a01b03160217905550606082015181600301556080820151816004015560a0820151816005015560c0820151816006015560e08201518160070160006101000a8154816001600160a01b0302191690836001600160a01b031602179055506101008201518160070160146101000a81548160ff0219169083151502179055506101208201518160070160156101000a81548160ff0219169083151502179055506101408201518160080160006101000a8154816001600160a01b0302191690836001600160a01b03160217905550610160820151816009015561018082015181600a01556101a082015181600b015590505060006014018190806001815401808255809150506001900390600052602060002090600c020160009091909190915060008201518160000160006101000a8154816001600160a01b0302191690836001600160a01b031602179055506020820151816001015560408201518160020160006101000a8154816001600160a01b0302191690836001600160a01b03160217905550606082015181600301556080820151816004015560a0820151816005015560c0820151816006015560e08201518160070160006101000a8154816001600160a01b0302191690836001600160a01b031602179055506101008201518160070160146101000a81548160ff0219169083151502179055506101208201518160070160156101000a81548160ff0219169083151502179055506101408201518160080160006101000a8154816001600160a01b0302191690836001600160a01b03160217905550610160820151816009015561018082015181600a01556101a082015181600b0155505086336001600160a01b03167f05f9bf100dd0ca9f37f08e0526690286d357ed7d6c5a4ac29730440b6e2dfd6260006011015488886040516108c5939291909283526020830191909152604082015260600190565b60405180910390a3601180549060006108dd8361164c565b919050555050505050505050565b6108f36112db565b600080606461090387600a611665565b61090d919061167c565b90506000606461091e88605a611665565b610928919061167c565b905060006064610939846014611665565b610943919061167c565b90506000606461095485600a611665565b61095e919061167c565b90506000606461096f86601e611665565b610979919061167c565b90506000606461098a876014611665565b610994919061167c565b9050600060646109a5886014611665565b6109af919061167c565b905060008d11610a0d5760405162461bcd60e51b8152602060048201526024808201527f41756374696f6e204944206d7573742062652067726561746572207468616e206044820152637a65726f60e01b6064820152608401610170565b60008d815260126020526040902060078101546001600160a01b031615801590610a3a575080600601548d115b15610ad657610a4a8f30896111c2565b610a558f8d886111c2565b610a778f8260070160009054906101000a90046001600160a01b0316866111c2565b601654610a85908490611639565b601655610a938f8c876111c2565b610a9f8f6000846112cb565b8e8160070160006101000a8154816001600160a01b0302191690836001600160a01b031602179055508c8160060181905550610b37565b60078101546001600160a01b0316158015610af4575080600601548d115b15610b3757610b048f30896111c2565b8e8160070160006101000a8154816001600160a01b0302191690836001600160a01b031602179055508c81600601819055505b601654604080516101c08101825283546001600160a01b0390811682526001850154602083015260028501548116928201929092526003840154606082015260048401546080820152600584015460a0820152600684015460c0820152600784015480831660e083015260ff600160a01b820481161515610100840152600160a81b90910416151561012082015260088401549091166101408201526009830154610160820152600a830154610180820152600b909201546101a08301529099509750505050505050509550959350505050565b60008411610c4e5760405162461bcd60e51b815260206004820152601060248201526f6e6f20667265652061756374696f6e7360801b6044820152606401610170565b603c831015610cb05760405162461bcd60e51b815260206004820152602860248201527f61756374696f6e206d757374206265206174206c65617374206f6e65206d696e604482015267757465206c6f6e6760c01b6064820152608401610170565b601154600003610cc05760016011555b610ccb3330876111c2565b610cd36112db565b338152602081018690526001600160a01b0382166040820152606081018390526080810184905260a08101859052600060c0820181905260e0820181905242841115610100830152610120820152610d2b8484611639565b61016082015233610140820152610d428484611639565b8161016001818152505060018161018001818152505080600060120160008060110154815260200190815260200160002060008201518160000160006101000a8154816001600160a01b0302191690836001600160a01b031602179055506020820151816001015560408201518160020160006101000a8154816001600160a01b0302191690836001600160a01b03160217905550606082015181600301556080820151816004015560a0820151816005015560c0820151816006015560e08201518160070160006101000a8154816001600160a01b0302191690836001600160a01b031602179055506101008201518160070160146101000a81548160ff0219169083151502179055506101208201518160070160156101000a81548160ff0219169083151502179055506101408201518160080160006101000a8154816001600160a01b0302191690836001600160a01b03160217905550610160820151816009015561018082015181600a01556101a082015181600b015590505060006014018190806001815401808255809150506001900390600052602060002090600c020160009091909190915060008201518160000160006101000a8154816001600160a01b0302191690836001600160a01b031602179055506020820151816001015560408201518160020160006101000a8154816001600160a01b0302191690836001600160a01b03160217905550606082015181600301556080820151816004015560a0820151816005015560c0820151816006015560e08201518160070160006101000a8154816001600160a01b0302191690836001600160a01b031602179055506101008201518160070160146101000a81548160ff0219169083151502179055506101208201518160070160156101000a81548160ff0219169083151502179055506101408201518160080160006101000a8154816001600160a01b0302191690836001600160a01b03160217905550610160820151816009015561018082015181600a01556101a082015181600b0155505085336001600160a01b03167f05f9bf100dd0ca9f37f08e0526690286d357ed7d6c5a4ac29730440b6e2dfd62600060110154888860405161108f939291909283526020830191909152604082015260600190565b60405180910390a3601180549060006110a78361164c565b9190505550505050505050565b60606000601401805480602002602001604051908101604052809291908181526020016000905b828210156111b9576000848152602090819020604080516101c081018252600c860290920180546001600160a01b0390811684526001808301548587015260028301548216938501939093526003820154606085015260048201546080850152600582015460a0850152600682015460c0850152600782015480821660e086015260ff600160a01b820481161515610100870152600160a81b9091041615156101208501526008820154166101408401526009810154610160840152600a810154610180840152600b01546101a083015290835290920191016110db565b50505050905090565b336000908152600460205260408120548281101561122e5760405162461bcd60e51b8152602060048201526024808201527f45524332303a204e6f7420656e6f75676820746f6b656e7320746f207472616e60448201526339b332b960e11b6064820152608401610170565b611238838261169e565b6001600160a01b0380871660009081526004850160205260408082209390935590861681529081208054859290611270908490611639565b92505081905550836001600160a01b0316856001600160a01b03167fddf252ad1be2c89b69c2b068fc378daa952ba7f163c4a11628f55a4df523b3ef856040516112bc91815260200190565b60405180910390a35050505050565b6112d68383836111c2565b505050565b604051806101c0016040528060006001600160a01b031681526020016000815260200160006001600160a01b031681526020016000815260200160008152602001600081526020016000815260200160006001600160a01b0316815260200160001515815260200160001515815260200160006001600160a01b031681526020016000815260200160008152602001600081525090565b60006020828403121561138457600080fd5b5035919050565b80516001600160a01b031682526020810151602083015260408101516113bc60408401826001600160a01b03169052565b50606081015160608301526080810151608083015260a081015160a083015260c081015160c083015260e08101516113ff60e08401826001600160a01b03169052565b506101008181015115159083015261012080820151151590830152610140808201516001600160a01b031690830152610160808201519083015261018080820151908301526101a090810151910152565b6101c0810161145f828461138b565b92915050565b80356001600160a01b038116811461147c57600080fd5b919050565b60008060008060008060c0878903121561149a57600080fd5b86359550602087013594506040870135935060608701359250608087013591506114c660a08801611465565b90509295509295509295565b600080600080600060a086880312156114ea57600080fd5b6114f386611465565b9450602086013593506040860135925061150f60608701611465565b915061151d60808701611465565b90509295509295909350565b6101e08101611538828561138b565b826101c08301529392505050565b600080600080600060a0868803121561155e57600080fd5b8535945060208601359350604086013592506060860135915061151d60808701611465565b6020808252825182820181905260009190848201906040850190845b818110156115c6576115b283855161138b565b928401926101c0929092019160010161159f565b50909695505050505050565b6001600160a01b0394851681529290931660208301526040820152606081019190915260a06080820181905260009082015260c00190565b60006020828403121561161c57600080fd5b5051919050565b634e487b7160e01b600052601160045260246000fd5b8082018082111561145f5761145f611623565b60006001820161165e5761165e611623565b5060010190565b808202811582820484141761145f5761145f611623565b60008261169957634e487b7160e01b600052601260045260246000fd5b500490565b8181038181111561145f5761145f61162356fea2646970667358221220c9db4a512a81a82fdd3d014690b09861d9706bc55c52972e890516059549e4de64736f6c63430008180033","linkReferences":{}},"methodIdentifiers":{"bid(address,uint256,uint256,address,address)":"5670872e","closeAuction(uint256)":"236ed8f3","create1155Auction(uint256,uint256,uint256,uint256,uint256,address)":"2ec1e929","create721Auction(uint256,uint256,uint256,uint256,address)":"8c1f7f6a","getAllAuctions()":"cbd2bdfd","getParticularAuction(uint256)":"24edbb97"},"id":4}