{"abi":[{"type":"constructor","inputs":[{"name":"_diamond","type":"address","internalType":"address"}],"stateMutability":"nonpayable"},{"type":"function","name":"balanceOf","inputs":[{"name":"account","type":"address","internalType":"address"},{"name":"id","type":"uint256","internalType":"uint256"}],"outputs":[{"name":"","type":"uint256","internalType":"uint256"}],"stateMutability":"view"},{"type":"function","name":"balanceOfBatch","inputs":[{"name":"accounts","type":"address[]","internalType":"address[]"},{"name":"ids","type":"uint256[]","internalType":"uint256[]"}],"outputs":[{"name":"","type":"uint256[]","internalType":"uint256[]"}],"stateMutability":"view"},{"type":"function","name":"isApprovedForAll","inputs":[{"name":"account","type":"address","internalType":"address"},{"name":"operator","type":"address","internalType":"address"}],"outputs":[{"name":"","type":"bool","internalType":"bool"}],"stateMutability":"view"},{"type":"function","name":"mint","inputs":[{"name":"account","type":"address","internalType":"address"},{"name":"id","type":"uint256","internalType":"uint256"},{"name":"amount","type":"uint256","internalType":"uint256"},{"name":"data","type":"bytes","internalType":"bytes"}],"outputs":[],"stateMutability":"nonpayable"},{"type":"function","name":"mintBatch","inputs":[{"name":"to","type":"address","internalType":"address"},{"name":"ids","type":"uint256[]","internalType":"uint256[]"},{"name":"amounts","type":"uint256[]","internalType":"uint256[]"},{"name":"data","type":"bytes","internalType":"bytes"}],"outputs":[],"stateMutability":"nonpayable"},{"type":"function","name":"safeBatchTransferFrom","inputs":[{"name":"from","type":"address","internalType":"address"},{"name":"to","type":"address","internalType":"address"},{"name":"ids","type":"uint256[]","internalType":"uint256[]"},{"name":"values","type":"uint256[]","internalType":"uint256[]"},{"name":"data","type":"bytes","internalType":"bytes"}],"outputs":[],"stateMutability":"nonpayable"},{"type":"function","name":"safeTransferFrom","inputs":[{"name":"from","type":"address","internalType":"address"},{"name":"to","type":"address","internalType":"address"},{"name":"id","type":"uint256","internalType":"uint256"},{"name":"value","type":"uint256","internalType":"uint256"},{"name":"data","type":"bytes","internalType":"bytes"}],"outputs":[],"stateMutability":"nonpayable"},{"type":"function","name":"setApprovalForAll","inputs":[{"name":"operator","type":"address","internalType":"address"},{"name":"approved","type":"bool","internalType":"bool"}],"outputs":[],"stateMutability":"nonpayable"},{"type":"function","name":"setURI","inputs":[{"name":"newuri","type":"string","internalType":"string"}],"outputs":[],"stateMutability":"nonpayable"},{"type":"function","name":"supportsInterface","inputs":[{"name":"interfaceId","type":"bytes4","internalType":"bytes4"}],"outputs":[{"name":"","type":"bool","internalType":"bool"}],"stateMutability":"view"},{"type":"function","name":"uri","inputs":[{"name":"","type":"uint256","internalType":"uint256"}],"outputs":[{"name":"","type":"string","internalType":"string"}],"stateMutability":"view"},{"type":"event","name":"ApprovalForAll","inputs":[{"name":"account","type":"address","indexed":true,"internalType":"address"},{"name":"operator","type":"address","indexed":true,"internalType":"address"},{"name":"approved","type":"bool","indexed":false,"internalType":"bool"}],"anonymous":false},{"type":"event","name":"TransferBatch","inputs":[{"name":"operator","type":"address","indexed":true,"internalType":"address"},{"name":"from","type":"address","indexed":true,"internalType":"address"},{"name":"to","type":"address","indexed":true,"internalType":"address"},{"name":"ids","type":"uint256[]","indexed":false,"internalType":"uint256[]"},{"name":"values","type":"uint256[]","indexed":false,"internalType":"uint256[]"}],"anonymous":false},{"type":"event","name":"TransferSingle","inputs":[{"name":"operator","type":"address","indexed":true,"internalType":"address"},{"name":"from","type":"address","indexed":true,"internalType":"address"},{"name":"to","type":"address","indexed":true,"internalType":"address"},{"name":"id","type":"uint256","indexed":false,"internalType":"uint256"},{"name":"value","type":"uint256","indexed":false,"internalType":"uint256"}],"anonymous":false},{"type":"event","name":"URI","inputs":[{"name":"value","type":"string","indexed":false,"internalType":"string"},{"name":"id","type":"uint256","indexed":true,"internalType":"uint256"}],"anonymous":false},{"type":"error","name":"ERC1155InsufficientBalance","inputs":[{"name":"sender","type":"address","internalType":"address"},{"name":"balance","type":"uint256","internalType":"uint256"},{"name":"needed","type":"uint256","internalType":"uint256"},{"name":"tokenId","type":"uint256","internalType":"uint256"}]},{"type":"error","name":"ERC1155InvalidApprover","inputs":[{"name":"approver","type":"address","internalType":"address"}]},{"type":"error","name":"ERC1155InvalidArrayLength","inputs":[{"name":"idsLength","type":"uint256","internalType":"uint256"},{"name":"valuesLength","type":"uint256","internalType":"uint256"}]},{"type":"error","name":"ERC1155InvalidOperator","inputs":[{"name":"operator","type":"address","internalType":"address"}]},{"type":"error","name":"ERC1155InvalidReceiver","inputs":[{"name":"receiver","type":"address","internalType":"address"}]},{"type":"error","name":"ERC1155InvalidSender","inputs":[{"name":"sender","type":"address","internalType":"address"}]},{"type":"error","name":"ERC1155MissingApprovalForAll","inputs":[{"name":"operator","type":"address","internalType":"address"},{"name":"owner","type":"address","internalType":"address"}]}],"bytecode":{"object":"0x60806040523480156200001157600080fd5b506040516200166238038062001662833981016040819052620000349162000087565b6040805160208101909152600081526200004e8162000075565b50600380546001600160a01b0319166001600160a01b03929092169190911790556200022c565b600262000083828262000160565b5050565b6000602082840312156200009a57600080fd5b81516001600160a01b0381168114620000b257600080fd5b9392505050565b634e487b7160e01b600052604160045260246000fd5b600181811c90821680620000e457607f821691505b6020821081036200010557634e487b7160e01b600052602260045260246000fd5b50919050565b601f8211156200015b576000816000526020600020601f850160051c81016020861015620001365750805b601f850160051c820191505b81811015620001575782815560010162000142565b5050505b505050565b81516001600160401b038111156200017c576200017c620000b9565b62000194816200018d8454620000cf565b846200010b565b602080601f831160018114620001cc5760008415620001b35750858301515b600019600386901b1c1916600185901b17855562000157565b600085815260208120601f198616915b82811015620001fd57888601518255948401946001909101908401620001dc565b50858210156200021c5787850151600019600388901b60f8161c191681555b5050505050600190811b01905550565b611426806200023c6000396000f3fe608060405234801561001057600080fd5b50600436106100a85760003560e01c80632eb2c2d6116100715780632eb2c2d61461013e5780634e1273f414610151578063731133e914610171578063a22cb46514610184578063e985e9c514610197578063f242432a146101aa57600080fd5b8062fdd58e146100ad57806301ffc9a7146100d357806302fe5305146100f65780630e89341c1461010b5780631f7fdffa1461012b575b600080fd5b6100c06100bb366004610b90565b6101bd565b6040519081526020015b60405180910390f35b6100e66100e1366004610bd0565b6101e5565b60405190151581526020016100ca565b610109610104366004610c93565b610235565b005b61011e610119366004610ce4565b610241565b6040516100ca9190610d43565b610109610139366004610e09565b6102d5565b61010961014c366004610ea2565b6102e7565b61016461015f366004610f4c565b610353565b6040516100ca9190611048565b61010961017f36600461105b565b610420565b6101096101923660046110b0565b61042c565b6100e66101a53660046110ec565b61043b565b6101096101b836600461111f565b610469565b6000818152602081815260408083206001600160a01b03861684529091529020545b92915050565b60006001600160e01b03198216636cdb3d1360e11b148061021657506001600160e01b031982166303a24d0760e21b145b806101df57506301ffc9a760e01b6001600160e01b03198316146101df565b61023e816104c8565b50565b60606002805461025090611184565b80601f016020809104026020016040519081016040528092919081815260200182805461027c90611184565b80156102c95780601f1061029e576101008083540402835291602001916102c9565b820191906000526020600020905b8154815290600101906020018083116102ac57829003601f168201915b50505050509050919050565b6102e1848484846104d4565b50505050565b336001600160a01b03861681148015906103085750610306868261043b565b155b1561033e5760405163711bec9160e11b81526001600160a01b038083166004830152871660248201526044015b60405180910390fd5b61034b868686868661050c565b505050505050565b606081518351146103845781518351604051635b05999160e01b815260048101929092526024820152604401610335565b6000835167ffffffffffffffff8111156103a0576103a0610bf4565b6040519080825280602002602001820160405280156103c9578160200160208202803683370190505b50905060005b8451811015610418576020808202860101516103f3906020808402870101516101bd565b828281518110610405576104056111be565b60209081029190910101526001016103cf565b509392505050565b6102e184848484610573565b6104373383836105d0565b5050565b6001600160a01b03918216600090815260016020908152604080832093909416825291909152205460ff1690565b336001600160a01b038616811480159061048a5750610488868261043b565b155b156104bb5760405163711bec9160e11b81526001600160a01b03808316600483015287166024820152604401610335565b61034b8686868686610666565b60026104378282611221565b6001600160a01b0384166104fe57604051632bfa23e760e11b815260006004820152602401610335565b6102e16000858585856106f4565b6001600160a01b03841661053657604051632bfa23e760e11b815260006004820152602401610335565b6001600160a01b03851661055f57604051626a0d4560e21b815260006004820152602401610335565b61056c85858585856106f4565b5050505050565b6001600160a01b03841661059d57604051632bfa23e760e11b815260006004820152602401610335565b6040805160018082526020820186905281830190815260608201859052608082019092529061034b6000878484876106f4565b6001600160a01b0382166105f95760405162ced3e160e81b815260006004820152602401610335565b6001600160a01b03838116600081815260016020908152604080832094871680845294825291829020805460ff191686151590811790915591519182527f17307eab39ab6107e8899845ad3d59bd9653f200f220920489ca2b5937696c31910160405180910390a3505050565b6001600160a01b03841661069057604051632bfa23e760e11b815260006004820152602401610335565b6001600160a01b0385166106b957604051626a0d4560e21b815260006004820152602401610335565b604080516001808252602082018690528183019081526060820185905260808201909252906106eb87878484876106f4565b50505050505050565b61070085858585610747565b6001600160a01b0384161561056c57825133906001036107395760208481015190840151610732838989858589610753565b505061034b565b61034b818787878787610877565b6102e184848484610960565b6001600160a01b0384163b1561034b5760405163f23a6e6160e01b81526001600160a01b0385169063f23a6e619061079790899089908890889088906004016112e1565b6020604051808303816000875af19250505080156107d2575060408051601f3d908101601f191682019092526107cf91810190611326565b60015b61083b573d808015610800576040519150601f19603f3d011682016040523d82523d6000602084013e610805565b606091505b50805160000361083357604051632bfa23e760e11b81526001600160a01b0386166004820152602401610335565b805181602001fd5b6001600160e01b0319811663f23a6e6160e01b146106eb57604051632bfa23e760e11b81526001600160a01b0386166004820152602401610335565b6001600160a01b0384163b1561034b5760405163bc197c8160e01b81526001600160a01b0385169063bc197c81906108bb9089908990889088908890600401611343565b6020604051808303816000875af19250505080156108f6575060408051601f3d908101601f191682019092526108f391810190611326565b60015b610924573d808015610800576040519150601f19603f3d011682016040523d82523d6000602084013e610805565b6001600160e01b0319811663bc197c8160e01b146106eb57604051632bfa23e760e11b81526001600160a01b0386166004820152602401610335565b805182511461098f5781518151604051635b05999160e01b815260048101929092526024820152604401610335565b3360005b8351811015610a95576020818102858101820151908501909101516001600160a01b03881615610a46576000828152602081815260408083206001600160a01b038c16845290915290205481811015610a1f576040516303dee4c560e01b81526001600160a01b038a166004820152602481018290526044810183905260648101849052608401610335565b6000838152602081815260408083206001600160a01b038d16845290915290209082900390555b6001600160a01b03871615610a8b576000828152602081815260408083206001600160a01b038b16845290915281208054839290610a859084906113a1565b90915550505b5050600101610993565b508251600103610b165760208301516000906020840151909150856001600160a01b0316876001600160a01b0316846001600160a01b03167fc3d58168c5ae7397731d063d5bbf3d657854427343f4c083240f7aacaa2d0f628585604051610b07929190918252602082015260400190565b60405180910390a4505061056c565b836001600160a01b0316856001600160a01b0316826001600160a01b03167f4a39dc06d4c0dbc64b70af90fd698a233a518aa5d07e595d983b8c0526c8f7fb8686604051610b659291906113c2565b60405180910390a45050505050565b80356001600160a01b0381168114610b8b57600080fd5b919050565b60008060408385031215610ba357600080fd5b610bac83610b74565b946020939093013593505050565b6001600160e01b03198116811461023e57600080fd5b600060208284031215610be257600080fd5b8135610bed81610bba565b9392505050565b634e487b7160e01b600052604160045260246000fd5b604051601f8201601f1916810167ffffffffffffffff81118282101715610c3357610c33610bf4565b604052919050565b600067ffffffffffffffff831115610c5557610c55610bf4565b610c68601f8401601f1916602001610c0a565b9050828152838383011115610c7c57600080fd5b828260208301376000602084830101529392505050565b600060208284031215610ca557600080fd5b813567ffffffffffffffff811115610cbc57600080fd5b8201601f81018413610ccd57600080fd5b610cdc84823560208401610c3b565b949350505050565b600060208284031215610cf657600080fd5b5035919050565b6000815180845260005b81811015610d2357602081850181015186830182015201610d07565b506000602082860101526020601f19601f83011685010191505092915050565b602081526000610bed6020830184610cfd565b600067ffffffffffffffff821115610d7057610d70610bf4565b5060051b60200190565b600082601f830112610d8b57600080fd5b81356020610da0610d9b83610d56565b610c0a565b8083825260208201915060208460051b870101935086841115610dc257600080fd5b602086015b84811015610dde5780358352918301918301610dc7565b509695505050505050565b600082601f830112610dfa57600080fd5b610bed83833560208501610c3b565b60008060008060808587031215610e1f57600080fd5b610e2885610b74565b9350602085013567ffffffffffffffff80821115610e4557600080fd5b610e5188838901610d7a565b94506040870135915080821115610e6757600080fd5b610e7388838901610d7a565b93506060870135915080821115610e8957600080fd5b50610e9687828801610de9565b91505092959194509250565b600080600080600060a08688031215610eba57600080fd5b610ec386610b74565b9450610ed160208701610b74565b9350604086013567ffffffffffffffff80821115610eee57600080fd5b610efa89838a01610d7a565b94506060880135915080821115610f1057600080fd5b610f1c89838a01610d7a565b93506080880135915080821115610f3257600080fd5b50610f3f88828901610de9565b9150509295509295909350565b60008060408385031215610f5f57600080fd5b823567ffffffffffffffff80821115610f7757600080fd5b818501915085601f830112610f8b57600080fd5b81356020610f9b610d9b83610d56565b82815260059290921b84018101918181019089841115610fba57600080fd5b948201945b83861015610fdf57610fd086610b74565b82529482019490820190610fbf565b96505086013592505080821115610ff557600080fd5b5061100285828601610d7a565b9150509250929050565b60008151808452602080850194506020840160005b8381101561103d57815187529582019590820190600101611021565b509495945050505050565b602081526000610bed602083018461100c565b6000806000806080858703121561107157600080fd5b61107a85610b74565b93506020850135925060408501359150606085013567ffffffffffffffff8111156110a457600080fd5b610e9687828801610de9565b600080604083850312156110c357600080fd5b6110cc83610b74565b9150602083013580151581146110e157600080fd5b809150509250929050565b600080604083850312156110ff57600080fd5b61110883610b74565b915061111660208401610b74565b90509250929050565b600080600080600060a0868803121561113757600080fd5b61114086610b74565b945061114e60208701610b74565b93506040860135925060608601359150608086013567ffffffffffffffff81111561117857600080fd5b610f3f88828901610de9565b600181811c9082168061119857607f821691505b6020821081036111b857634e487b7160e01b600052602260045260246000fd5b50919050565b634e487b7160e01b600052603260045260246000fd5b601f82111561121c576000816000526020600020601f850160051c810160208610156111fd5750805b601f850160051c820191505b8181101561034b57828155600101611209565b505050565b815167ffffffffffffffff81111561123b5761123b610bf4565b61124f816112498454611184565b846111d4565b602080601f831160018114611284576000841561126c5750858301515b600019600386901b1c1916600185901b17855561034b565b600085815260208120601f198616915b828110156112b357888601518255948401946001909101908401611294565b50858210156112d15787850151600019600388901b60f8161c191681555b5050505050600190811b01905550565b6001600160a01b03868116825285166020820152604081018490526060810183905260a06080820181905260009061131b90830184610cfd565b979650505050505050565b60006020828403121561133857600080fd5b8151610bed81610bba565b6001600160a01b0386811682528516602082015260a06040820181905260009061136f9083018661100c565b8281036060840152611381818661100c565b905082810360808401526113958185610cfd565b98975050505050505050565b808201808211156101df57634e487b7160e01b600052601160045260246000fd5b6040815260006113d5604083018561100c565b82810360208401526113e7818561100c565b9594505050505056fea26469706673582212203709e5258c0ee479b7202b86b45eec7dfbbd36a6f248606df949d0d4a9b5752664736f6c63430008180033","linkReferences":{}},"methodIdentifiers":{"balanceOf(address,uint256)":"00fdd58e","balanceOfBatch(address[],uint256[])":"4e1273f4","isApprovedForAll(address,address)":"e985e9c5","mint(address,uint256,uint256,bytes)":"731133e9","mintBatch(address,uint256[],uint256[],bytes)":"1f7fdffa","safeBatchTransferFrom(address,address,uint256[],uint256[],bytes)":"2eb2c2d6","safeTransferFrom(address,address,uint256,uint256,bytes)":"f242432a","setApprovalForAll(address,bool)":"a22cb465","setURI(string)":"02fe5305","supportsInterface(bytes4)":"01ffc9a7","uri(uint256)":"0e89341c"},"id":1}