{"abi":[{"type":"function","name":"bid","inputs":[{"name":"auctionID","type":"uint256","internalType":"uint256"},{"name":"_bidAmount","type":"uint256","internalType":"uint256"}],"outputs":[],"stateMutability":"nonpayable"},{"type":"function","name":"closeAuction","inputs":[{"name":"auctionId","type":"uint256","internalType":"uint256"}],"outputs":[],"stateMutability":"nonpayable"},{"type":"function","name":"create1155Auction","inputs":[{"name":"tokenId","type":"uint256","internalType":"uint256"},{"name":"amounts","type":"uint256","internalType":"uint256"},{"name":"reservePrice","type":"uint256","internalType":"uint256"},{"name":"duration","type":"uint256","internalType":"uint256"},{"name":"startTime","type":"uint256","internalType":"uint256"},{"name":"tokenAddress","type":"address","internalType":"address"}],"outputs":[],"stateMutability":"nonpayable"},{"type":"function","name":"create721Auction","inputs":[{"name":"tokenId","type":"uint256","internalType":"uint256"},{"name":"reservePrice","type":"uint256","internalType":"uint256"},{"name":"duration","type":"uint256","internalType":"uint256"},{"name":"startTime","type":"uint256","internalType":"uint256"},{"name":"tokenAddress","type":"address","internalType":"address"}],"outputs":[],"stateMutability":"nonpayable"},{"type":"function","name":"getParticularAuction","inputs":[{"name":"auctionId","type":"uint256","internalType":"uint256"}],"outputs":[{"name":"","type":"tuple","internalType":"struct LibAppStorage.Auction","components":[{"name":"seller","type":"address","internalType":"address"},{"name":"tokenId","type":"uint256","internalType":"uint256"},{"name":"tokenContract","type":"address","internalType":"address"},{"name":"startTime","type":"uint256","internalType":"uint256"},{"name":"duration","type":"uint256","internalType":"uint256"},{"name":"reservePrice","type":"uint256","internalType":"uint256"},{"name":"currentHighestBid","type":"uint256","internalType":"uint256"},{"name":"currentHighestBider","type":"address","internalType":"address"},{"name":"lastBidder","type":"address","internalType":"address"},{"name":"lastbid","type":"uint256","internalType":"uint256"},{"name":"started","type":"bool","internalType":"bool"},{"name":"ended","type":"bool","internalType":"bool"},{"name":"auctionCreator","type":"address","internalType":"address"},{"name":"endedTime","type":"uint256","internalType":"uint256"},{"name":"tokenType","type":"uint256","internalType":"uint256"},{"name":"tokenAmount","type":"uint256","internalType":"uint256"}]}],"stateMutability":"view"},{"type":"event","name":"AuctionCreated","inputs":[{"name":"auctionId","type":"uint256","indexed":false,"internalType":"uint256"},{"name":"seller","type":"address","indexed":true,"internalType":"address"},{"name":"tokenId","type":"uint256","indexed":true,"internalType":"uint256"},{"name":"reservePrice","type":"uint256","indexed":false,"internalType":"uint256"},{"name":"duration","type":"uint256","indexed":false,"internalType":"uint256"}],"anonymous":false},{"type":"event","name":"BidSubmitted","inputs":[{"name":"bidAmount","type":"uint256","indexed":false,"internalType":"uint256"}],"anonymous":false},{"type":"event","name":"Transfer","inputs":[{"name":"_from","type":"address","indexed":true,"internalType":"address"},{"name":"_to","type":"address","indexed":true,"internalType":"address"},{"name":"_value","type":"uint256","indexed":false,"internalType":"uint256"}],"anonymous":false}],"bytecode":{"object":"0x608060405234801561001057600080fd5b506118d6806100206000396000f3fe608060405234801561001057600080fd5b50600436106100575760003560e01c8063236ed8f31461005c57806324edbb97146100715780632ec1e9291461009a578063598647f8146100ad5780638c1f7f6a146100c0575b600080fd5b61006f61006a3660046115b4565b6100d3565b005b61008461007f3660046115b4565b610215565b60405161009191906115cd565b60405180910390f35b61006f6100a83660046116d3565b610304565b61006f6100bb366004611728565b610953565b61006f6100ce36600461174a565b610ca6565b600081815260126020526040902080546001600160a01b0316331461014b5760405162461bcd60e51b815260206004820152602360248201527f43616e6e6f7420656e6420616e6f7468657220706572736f6e2773204175637460448201526234b7b760e91b60648201526084015b60405180910390fd5b600a8101805461ff001916610100179055600c81015460010361018d57600781015460018201546101899130916001600160a01b0390911690611283565b5050565b80600c015460020361018957600281015460078201546001830154600d840154604051637921219560e11b81526001600160a01b039485169463f242432a946101df9430949190921692600401611797565b600060405180830381600087803b1580156101f957600080fd5b505af115801561020d573d6000803e3d6000fd5b505050505050565b61021d611506565b5060009081526012602090815260409182902082516102008101845281546001600160a01b03908116825260018301549382019390935260028201548316938101939093526003810154606084015260048101546080840152600581015460a0840152600681015460c08401526007810154821660e084015260088101548216610100808501919091526009820154610120850152600a82015460ff80821615156101408701529181049091161515610160850152620100009004909116610180830152600b8101546101a0830152600c8101546101c0830152600d01546101e082015290565b600084116103605760405162461bcd60e51b8152602060048201526024808201527f52657365727665207072696365206d75737420626520677265617465722074686044820152630616e20360e41b6064820152608401610142565b603c8310156103c25760405162461bcd60e51b815260206004820152602860248201527f41756374696f6e206d757374206265206174206c65617374206f6e65206d696e604482015267757465206c6f6e6760c01b6064820152608401610142565b604051627eeac760e11b81523360048201526024810187905285906001600160a01b0383169062fdd58e90604401602060405180830381865afa15801561040d573d6000803e3d6000fd5b505050506040513d601f19601f8201168201806040525081019061043191906117cf565b10156104735760405162461bcd60e51b81526020600482015260116024820152704e6f7420656e6f75676820746f6b656e7360781b6044820152606401610142565b6011546000036104835760016011555b604051637921219560e11b81526001600160a01b0382169063f242432a906104b590339030908b908b90600401611797565b600060405180830381600087803b1580156104cf57600080fd5b505af11580156104e3573d6000803e3d6000fd5b505050506104ef611506565b338152602081018790526001600160a01b0382166040820152606081018390526080810184905260a08101859052600060c0820181905260e08201819052610100820181905261012082018190524284111561014083015261016082015261055784846117fe565b6101a08201523361018082015261056e84846117fe565b816101a00181815250506002816101c001818152505080600060120160008060110154815260200190815260200160002060008201518160000160006101000a8154816001600160a01b0302191690836001600160a01b031602179055506020820151816001015560408201518160020160006101000a8154816001600160a01b0302191690836001600160a01b03160217905550606082015181600301556080820151816004015560a0820151816005015560c0820151816006015560e08201518160070160006101000a8154816001600160a01b0302191690836001600160a01b031602179055506101008201518160080160006101000a8154816001600160a01b0302191690836001600160a01b03160217905550610120820151816009015561014082015181600a0160006101000a81548160ff02191690831515021790555061016082015181600a0160016101000a81548160ff02191690831515021790555061018082015181600a0160026101000a8154816001600160a01b0302191690836001600160a01b031602179055506101a082015181600b01556101c082015181600c01556101e082015181600d015590505060006014018190806001815401808255809150506001900390600052602060002090600e020160009091909190915060008201518160000160006101000a8154816001600160a01b0302191690836001600160a01b031602179055506020820151816001015560408201518160020160006101000a8154816001600160a01b0302191690836001600160a01b03160217905550606082015181600301556080820151816004015560a0820151816005015560c0820151816006015560e08201518160070160006101000a8154816001600160a01b0302191690836001600160a01b031602179055506101008201518160080160006101000a8154816001600160a01b0302191690836001600160a01b03160217905550610120820151816009015561014082015181600a0160006101000a81548160ff02191690831515021790555061016082015181600a0160016101000a81548160ff02191690831515021790555061018082015181600a0160026101000a8154816001600160a01b0302191690836001600160a01b031602179055506101a082015181600b01556101c082015181600c01556101e082015181600d0155505086336001600160a01b03167f05f9bf100dd0ca9f37f08e0526690286d357ed7d6c5a4ac29730440b6e2dfd62600060110154888860405161092d939291909283526020830191909152604082015260600190565b60405180910390a36011805490600061094583611817565b919050555050505050505050565b60008281526012602090815260408083203384526004909252909120546008839055826109d05760405162461bcd60e51b815260206004820152602560248201527f42696420616d6f756e74206d7573742062652067726561746572207468616e206044820152643d32b9379760d91b6064820152608401610142565b8282600501541015610a195760405162461bcd60e51b81526020600482015260126024820152715468652062696420697320746f6f206c6f7760701b6044820152606401610142565b6008820154336001600160a01b0390911603610a775760405162461bcd60e51b815260206004820152601a60248201527f596f752063616e6e6f74206f757462696420796f757273656c660000000000006044820152606401610142565b828111610ab95760405162461bcd60e51b815260206004820152601060248201526f4e6f7420656e6f7567682066756e647360801b6044820152606401610142565b81600901548311610b0c5760405162461bcd60e51b815260206004820152601960248201527f426964206c657373207468616e206869676865737420626964000000000000006044820152606401610142565b81600b0154421180610b275750600a820154610100900460ff165b610b635760405162461bcd60e51b815260206004820152600d60248201526c105d58dd1a5bdb88115b991959609a1b6044820152606401610142565b60006064610b7285600a611830565b610b7c9190611847565b905060006064610b8d86605a611830565b610b979190611847565b905060006064610ba884600a611830565b610bb29190611847565b905060006064610bc385600a611830565b610bcd9190611847565b905060006064610bde86601e611830565b610be89190611847565b905060006064610bf9876014611830565b610c039190611847565b905060006064610c14886014611830565b610c1e9190611847565b905088600b0154421180610c3b5750600a890154610100900460ff165b15610c4f57610c4f8987878686898761138c565b6040518a81527f358563bd515c85604de1143ccbc83efbe0890167e41d1680e551374035924c0d9060200160405180910390a15050600a80546001600160a01b031916331790555050506008949094555050505050565b60008411610ce95760405162461bcd60e51b815260206004820152601060248201526f6e6f20667265652061756374696f6e7360801b6044820152606401610142565b603c831015610d4b5760405162461bcd60e51b815260206004820152602860248201527f61756374696f6e206d757374206265206174206c65617374206f6e65206d696e604482015267757465206c6f6e6760c01b6064820152608401610142565b6040516331a9108f60e11b81526004810186905233906001600160a01b03831690636352211e90602401602060405180830381865afa158015610d92573d6000803e3d6000fd5b505050506040513d601f19601f82011682018060405250810190610db69190611869565b6001600160a01b031614610dfd5760405162461bcd60e51b815260206004820152600e60248201526d2737ba103cb7bab9103a37b5b2b760911b6044820152606401610142565b601154600003610e0d5760016011555b610e18333087611283565b610e20611506565b338152602081018690526001600160a01b0382166040820152606081018390526080810184905260a08101859052600060c0820181905260e082018190526101008201819052610120820181905242841115610140830152610160820152610e8884846117fe565b6101a082015233610180820152610e9f84846117fe565b816101a00181815250506001816101c001818152505080600060120160008060110154815260200190815260200160002060008201518160000160006101000a8154816001600160a01b0302191690836001600160a01b031602179055506020820151816001015560408201518160020160006101000a8154816001600160a01b0302191690836001600160a01b03160217905550606082015181600301556080820151816004015560a0820151816005015560c0820151816006015560e08201518160070160006101000a8154816001600160a01b0302191690836001600160a01b031602179055506101008201518160080160006101000a8154816001600160a01b0302191690836001600160a01b03160217905550610120820151816009015561014082015181600a0160006101000a81548160ff02191690831515021790555061016082015181600a0160016101000a81548160ff02191690831515021790555061018082015181600a0160026101000a8154816001600160a01b0302191690836001600160a01b031602179055506101a082015181600b01556101c082015181600c01556101e082015181600d015590505060006014018190806001815401808255809150506001900390600052602060002090600e020160009091909190915060008201518160000160006101000a8154816001600160a01b0302191690836001600160a01b031602179055506020820151816001015560408201518160020160006101000a8154816001600160a01b0302191690836001600160a01b03160217905550606082015181600301556080820151816004015560a0820151816005015560c0820151816006015560e08201518160070160006101000a8154816001600160a01b0302191690836001600160a01b031602179055506101008201518160080160006101000a8154816001600160a01b0302191690836001600160a01b03160217905550610120820151816009015561014082015181600a0160006101000a81548160ff02191690831515021790555061016082015181600a0160016101000a81548160ff02191690831515021790555061018082015181600a0160026101000a8154816001600160a01b0302191690836001600160a01b031602179055506101a082015181600b01556101c082015181600c01556101e082015181600d0155505085336001600160a01b03167f05f9bf100dd0ca9f37f08e0526690286d357ed7d6c5a4ac29730440b6e2dfd62600060110154888860405161125e939291909283526020830191909152604082015260600190565b60405180910390a36011805490600061127683611817565b9190505550505050505050565b33600090815260046020526040812054828110156112ef5760405162461bcd60e51b8152602060048201526024808201527f45524332303a204e6f7420656e6f75676820746f6b656e7320746f207472616e60448201526339b332b960e11b6064820152608401610142565b6112f9838261188d565b6001600160a01b03808716600090815260048501602052604080822093909355908616815290812080548592906113319084906117fe565b92505081905550836001600160a01b0316856001600160a01b03167fddf252ad1be2c89b69c2b068fc378daa952ba7f163c4a11628f55a4df523b3ef8560405161137d91815260200190565b60405180910390a35050505050565b60078701546001600160a01b03161561146a5786600c01546001036113bb576113b6333088611283565b61143a565b86600c015460020361005757600287015460018801546005890154604051637921219560e11b81526001600160a01b039093169263f242432a9261140792339230929190600401611797565b600060405180830381600087803b15801561142157600080fd5b505af1158015611435573d6000803e3d6000fd5b505050505b600b546114529033906001600160a01b031687611283565b600a5461146a9033906001600160a01b031686611283565b600c546114829033906001600160a01b031685611283565b600d5461149a9033906001600160a01b031684611283565b604051630852cd8d60e31b81526004810182905273__$e39f0fe5e65a32776687b7240b5f8413af$__906342966c689060240160006040518083038186803b1580156114e557600080fd5b505af41580156114f9573d6000803e3d6000fd5b5050505050505050505050565b60405180610200016040528060006001600160a01b031681526020016000815260200160006001600160a01b031681526020016000815260200160008152602001600081526020016000815260200160006001600160a01b0316815260200160006001600160a01b031681526020016000815260200160001515815260200160001515815260200160006001600160a01b031681526020016000815260200160008152602001600081525090565b6000602082840312156115c657600080fd5b5035919050565b81516001600160a01b03168152610200810160208301516020830152604083015161160360408401826001600160a01b03169052565b50606083015160608301526080830151608083015260a083015160a083015260c083015160c083015260e083015161164660e08401826001600160a01b03169052565b50610100838101516001600160a01b03908116918401919091526101208085015190840152610140808501511515908401526101608085015115159084015261018080850151909116908301526101a080840151908301526101c080840151908301526101e092830151929091019190915290565b6001600160a01b03811681146116d057600080fd5b50565b60008060008060008060c087890312156116ec57600080fd5b863595506020870135945060408701359350606087013592506080870135915060a087013561171a816116bb565b809150509295509295509295565b6000806040838503121561173b57600080fd5b50508035926020909101359150565b600080600080600060a0868803121561176257600080fd5b853594506020860135935060408601359250606086013591506080860135611789816116bb565b809150509295509295909350565b6001600160a01b0394851681529290931660208301526040820152606081019190915260a06080820181905260009082015260c00190565b6000602082840312156117e157600080fd5b5051919050565b634e487b7160e01b600052601160045260246000fd5b80820180821115611811576118116117e8565b92915050565b600060018201611829576118296117e8565b5060010190565b8082028115828204841417611811576118116117e8565b60008261186457634e487b7160e01b600052601260045260246000fd5b500490565b60006020828403121561187b57600080fd5b8151611886816116bb565b9392505050565b81810381811115611811576118116117e856fea2646970667358221220832e83e4ccf954dead3aa387c0a4b2281f269e3d9ed726f7c155e22ad7565c5064736f6c63430008180033","linkReferences":{"contracts/libraries/LibAppStorage.sol":{"LibAppStorage":[{"start":5328,"length":20}]}}},"methodIdentifiers":{"bid(uint256,uint256)":"598647f8","closeAuction(uint256)":"236ed8f3","create1155Auction(uint256,uint256,uint256,uint256,uint256,address)":"2ec1e929","create721Auction(uint256,uint256,uint256,uint256,address)":"8c1f7f6a","getParticularAuction(uint256)":"24edbb97"},"id":0}