{"abi":[{"type":"function","name":"bid","inputs":[{"name":"auctionID","type":"uint256","internalType":"uint256"},{"name":"_bidAmount","type":"uint256","internalType":"uint256"}],"outputs":[],"stateMutability":"nonpayable"},{"type":"function","name":"closeAuction","inputs":[{"name":"auctionId","type":"uint256","internalType":"uint256"}],"outputs":[],"stateMutability":"nonpayable"},{"type":"function","name":"create1155Auction","inputs":[{"name":"tokenId","type":"uint256","internalType":"uint256"},{"name":"amounts","type":"uint256","internalType":"uint256"},{"name":"reservePrice","type":"uint256","internalType":"uint256"},{"name":"duration","type":"uint256","internalType":"uint256"},{"name":"startTime","type":"uint256","internalType":"uint256"},{"name":"tokenAddress","type":"address","internalType":"address"}],"outputs":[],"stateMutability":"nonpayable"},{"type":"function","name":"create721Auction","inputs":[{"name":"tokenId","type":"uint256","internalType":"uint256"},{"name":"reservePrice","type":"uint256","internalType":"uint256"},{"name":"duration","type":"uint256","internalType":"uint256"},{"name":"startTime","type":"uint256","internalType":"uint256"},{"name":"tokenAddress","type":"address","internalType":"address"}],"outputs":[],"stateMutability":"nonpayable"},{"type":"function","name":"getAllAuctions","inputs":[],"outputs":[{"name":"","type":"tuple[]","internalType":"struct LibAppStorage.Auction[]","components":[{"name":"seller","type":"address","internalType":"address"},{"name":"tokenId","type":"uint256","internalType":"uint256"},{"name":"tokenContract","type":"address","internalType":"address"},{"name":"startTime","type":"uint256","internalType":"uint256"},{"name":"duration","type":"uint256","internalType":"uint256"},{"name":"reservePrice","type":"uint256","internalType":"uint256"},{"name":"currentHighestBid","type":"uint256","internalType":"uint256"},{"name":"currentHighestBider","type":"address","internalType":"address"},{"name":"lastBidder","type":"address","internalType":"address"},{"name":"lastbid","type":"uint256","internalType":"uint256"},{"name":"started","type":"bool","internalType":"bool"},{"name":"ended","type":"bool","internalType":"bool"},{"name":"auctionCreator","type":"address","internalType":"address"},{"name":"endedTime","type":"uint256","internalType":"uint256"},{"name":"tokenType","type":"uint256","internalType":"uint256"},{"name":"tokenAmount","type":"uint256","internalType":"uint256"}]}],"stateMutability":"view"},{"type":"function","name":"getParticularAuction","inputs":[{"name":"auctionId","type":"uint256","internalType":"uint256"}],"outputs":[{"name":"","type":"tuple","internalType":"struct LibAppStorage.Auction","components":[{"name":"seller","type":"address","internalType":"address"},{"name":"tokenId","type":"uint256","internalType":"uint256"},{"name":"tokenContract","type":"address","internalType":"address"},{"name":"startTime","type":"uint256","internalType":"uint256"},{"name":"duration","type":"uint256","internalType":"uint256"},{"name":"reservePrice","type":"uint256","internalType":"uint256"},{"name":"currentHighestBid","type":"uint256","internalType":"uint256"},{"name":"currentHighestBider","type":"address","internalType":"address"},{"name":"lastBidder","type":"address","internalType":"address"},{"name":"lastbid","type":"uint256","internalType":"uint256"},{"name":"started","type":"bool","internalType":"bool"},{"name":"ended","type":"bool","internalType":"bool"},{"name":"auctionCreator","type":"address","internalType":"address"},{"name":"endedTime","type":"uint256","internalType":"uint256"},{"name":"tokenType","type":"uint256","internalType":"uint256"},{"name":"tokenAmount","type":"uint256","internalType":"uint256"}]}],"stateMutability":"view"},{"type":"event","name":"AuctionCreated","inputs":[{"name":"auctionId","type":"uint256","indexed":false,"internalType":"uint256"},{"name":"seller","type":"address","indexed":true,"internalType":"address"},{"name":"tokenId","type":"uint256","indexed":true,"internalType":"uint256"},{"name":"reservePrice","type":"uint256","indexed":false,"internalType":"uint256"},{"name":"duration","type":"uint256","indexed":false,"internalType":"uint256"}],"anonymous":false},{"type":"event","name":"BidSubmitted","inputs":[{"name":"bidAmount","type":"uint256","indexed":false,"internalType":"uint256"}],"anonymous":false},{"type":"event","name":"Transfer","inputs":[{"name":"_from","type":"address","indexed":true,"internalType":"address"},{"name":"_to","type":"address","indexed":true,"internalType":"address"},{"name":"_value","type":"uint256","indexed":false,"internalType":"uint256"}],"anonymous":false}],"bytecode":{"object":"0x608060405234801561001057600080fd5b50611a6f806100206000396000f3fe608060405234801561001057600080fd5b50600436106100625760003560e01c8063236ed8f31461006757806324edbb971461007c5780632ec1e929146100a5578063598647f8146100b85780638c1f7f6a146100cb578063cbd2bdfd146100de575b600080fd5b61007a6100753660046116fa565b6100f3565b005b61008f61008a3660046116fa565b610235565b60405161009c91906117f6565b60405180910390f35b61007a6100b3366004611823565b610324565b61007a6100c6366004611878565b610973565b61007a6100d936600461189a565b610cc6565b6100e66112a3565b60405161009c91906118e7565b600081815260126020526040902080546001600160a01b0316331461016b5760405162461bcd60e51b815260206004820152602360248201527f43616e6e6f7420656e6420616e6f7468657220706572736f6e2773204175637460448201526234b7b760e91b60648201526084015b60405180910390fd5b600a8101805461ff001916610100179055600c8101546001036101ad57600781015460018201546101a99130916001600160a01b03909116906113c9565b5050565b80600c01546002036101a957600281015460078201546001830154600d840154604051637921219560e11b81526001600160a01b039485169463f242432a946101ff9430949190921692600401611936565b600060405180830381600087803b15801561021957600080fd5b505af115801561022d573d6000803e3d6000fd5b505050505050565b61023d61164c565b5060009081526012602090815260409182902082516102008101845281546001600160a01b03908116825260018301549382019390935260028201548316938101939093526003810154606084015260048101546080840152600581015460a0840152600681015460c08401526007810154821660e084015260088101548216610100808501919091526009820154610120850152600a82015460ff80821615156101408701529181049091161515610160850152620100009004909116610180830152600b8101546101a0830152600c8101546101c0830152600d01546101e082015290565b600084116103805760405162461bcd60e51b8152602060048201526024808201527f52657365727665207072696365206d75737420626520677265617465722074686044820152630616e20360e41b6064820152608401610162565b603c8310156103e25760405162461bcd60e51b815260206004820152602860248201527f41756374696f6e206d757374206265206174206c65617374206f6e65206d696e604482015267757465206c6f6e6760c01b6064820152608401610162565b604051627eeac760e11b81523360048201526024810187905285906001600160a01b0383169062fdd58e90604401602060405180830381865afa15801561042d573d6000803e3d6000fd5b505050506040513d601f19601f82011682018060405250810190610451919061196e565b10156104935760405162461bcd60e51b81526020600482015260116024820152704e6f7420656e6f75676820746f6b656e7360781b6044820152606401610162565b6011546000036104a35760016011555b604051637921219560e11b81526001600160a01b0382169063f242432a906104d590339030908b908b90600401611936565b600060405180830381600087803b1580156104ef57600080fd5b505af1158015610503573d6000803e3d6000fd5b5050505061050f61164c565b338152602081018790526001600160a01b0382166040820152606081018390526080810184905260a08101859052600060c0820181905260e082018190526101008201819052610120820181905242841115610140830152610160820152610577848461199d565b6101a08201523361018082015261058e848461199d565b816101a00181815250506002816101c001818152505080600060120160008060110154815260200190815260200160002060008201518160000160006101000a8154816001600160a01b0302191690836001600160a01b031602179055506020820151816001015560408201518160020160006101000a8154816001600160a01b0302191690836001600160a01b03160217905550606082015181600301556080820151816004015560a0820151816005015560c0820151816006015560e08201518160070160006101000a8154816001600160a01b0302191690836001600160a01b031602179055506101008201518160080160006101000a8154816001600160a01b0302191690836001600160a01b03160217905550610120820151816009015561014082015181600a0160006101000a81548160ff02191690831515021790555061016082015181600a0160016101000a81548160ff02191690831515021790555061018082015181600a0160026101000a8154816001600160a01b0302191690836001600160a01b031602179055506101a082015181600b01556101c082015181600c01556101e082015181600d015590505060006014018190806001815401808255809150506001900390600052602060002090600e020160009091909190915060008201518160000160006101000a8154816001600160a01b0302191690836001600160a01b031602179055506020820151816001015560408201518160020160006101000a8154816001600160a01b0302191690836001600160a01b03160217905550606082015181600301556080820151816004015560a0820151816005015560c0820151816006015560e08201518160070160006101000a8154816001600160a01b0302191690836001600160a01b031602179055506101008201518160080160006101000a8154816001600160a01b0302191690836001600160a01b03160217905550610120820151816009015561014082015181600a0160006101000a81548160ff02191690831515021790555061016082015181600a0160016101000a81548160ff02191690831515021790555061018082015181600a0160026101000a8154816001600160a01b0302191690836001600160a01b031602179055506101a082015181600b01556101c082015181600c01556101e082015181600d0155505086336001600160a01b03167f05f9bf100dd0ca9f37f08e0526690286d357ed7d6c5a4ac29730440b6e2dfd62600060110154888860405161094d939291909283526020830191909152604082015260600190565b60405180910390a360118054906000610965836119b0565b919050555050505050505050565b60008281526012602090815260408083203384526004909252909120546008839055826109f05760405162461bcd60e51b815260206004820152602560248201527f42696420616d6f756e74206d7573742062652067726561746572207468616e206044820152643d32b9379760d91b6064820152608401610162565b8282600501541015610a395760405162461bcd60e51b81526020600482015260126024820152715468652062696420697320746f6f206c6f7760701b6044820152606401610162565b6008820154336001600160a01b0390911603610a975760405162461bcd60e51b815260206004820152601a60248201527f596f752063616e6e6f74206f757462696420796f757273656c660000000000006044820152606401610162565b828111610ad95760405162461bcd60e51b815260206004820152601060248201526f4e6f7420656e6f7567682066756e647360801b6044820152606401610162565b81600901548311610b2c5760405162461bcd60e51b815260206004820152601960248201527f426964206c657373207468616e206869676865737420626964000000000000006044820152606401610162565b81600b0154421180610b475750600a820154610100900460ff165b610b835760405162461bcd60e51b815260206004820152600d60248201526c105d58dd1a5bdb88115b991959609a1b6044820152606401610162565b60006064610b9285600a6119c9565b610b9c91906119e0565b905060006064610bad86605a6119c9565b610bb791906119e0565b905060006064610bc884600a6119c9565b610bd291906119e0565b905060006064610be385600a6119c9565b610bed91906119e0565b905060006064610bfe86601e6119c9565b610c0891906119e0565b905060006064610c198760146119c9565b610c2391906119e0565b905060006064610c348860146119c9565b610c3e91906119e0565b905088600b0154421180610c5b5750600a890154610100900460ff165b15610c6f57610c6f898787868689876114d2565b6040518a81527f358563bd515c85604de1143ccbc83efbe0890167e41d1680e551374035924c0d9060200160405180910390a15050600a80546001600160a01b031916331790555050506008949094555050505050565b60008411610d095760405162461bcd60e51b815260206004820152601060248201526f6e6f20667265652061756374696f6e7360801b6044820152606401610162565b603c831015610d6b5760405162461bcd60e51b815260206004820152602860248201527f61756374696f6e206d757374206265206174206c65617374206f6e65206d696e604482015267757465206c6f6e6760c01b6064820152608401610162565b6040516331a9108f60e11b81526004810186905233906001600160a01b03831690636352211e90602401602060405180830381865afa158015610db2573d6000803e3d6000fd5b505050506040513d601f19601f82011682018060405250810190610dd69190611a02565b6001600160a01b031614610e1d5760405162461bcd60e51b815260206004820152600e60248201526d2737ba103cb7bab9103a37b5b2b760911b6044820152606401610162565b601154600003610e2d5760016011555b610e383330876113c9565b610e4061164c565b338152602081018690526001600160a01b0382166040820152606081018390526080810184905260a08101859052600060c0820181905260e082018190526101008201819052610120820181905242841115610140830152610160820152610ea8848461199d565b6101a082015233610180820152610ebf848461199d565b816101a00181815250506001816101c001818152505080600060120160008060110154815260200190815260200160002060008201518160000160006101000a8154816001600160a01b0302191690836001600160a01b031602179055506020820151816001015560408201518160020160006101000a8154816001600160a01b0302191690836001600160a01b03160217905550606082015181600301556080820151816004015560a0820151816005015560c0820151816006015560e08201518160070160006101000a8154816001600160a01b0302191690836001600160a01b031602179055506101008201518160080160006101000a8154816001600160a01b0302191690836001600160a01b03160217905550610120820151816009015561014082015181600a0160006101000a81548160ff02191690831515021790555061016082015181600a0160016101000a81548160ff02191690831515021790555061018082015181600a0160026101000a8154816001600160a01b0302191690836001600160a01b031602179055506101a082015181600b01556101c082015181600c01556101e082015181600d015590505060006014018190806001815401808255809150506001900390600052602060002090600e020160009091909190915060008201518160000160006101000a8154816001600160a01b0302191690836001600160a01b031602179055506020820151816001015560408201518160020160006101000a8154816001600160a01b0302191690836001600160a01b03160217905550606082015181600301556080820151816004015560a0820151816005015560c0820151816006015560e08201518160070160006101000a8154816001600160a01b0302191690836001600160a01b031602179055506101008201518160080160006101000a8154816001600160a01b0302191690836001600160a01b03160217905550610120820151816009015561014082015181600a0160006101000a81548160ff02191690831515021790555061016082015181600a0160016101000a81548160ff02191690831515021790555061018082015181600a0160026101000a8154816001600160a01b0302191690836001600160a01b031602179055506101a082015181600b01556101c082015181600c01556101e082015181600d0155505085336001600160a01b03167f05f9bf100dd0ca9f37f08e0526690286d357ed7d6c5a4ac29730440b6e2dfd62600060110154888860405161127e939291909283526020830191909152604082015260600190565b60405180910390a360118054906000611296836119b0565b9190505550505050505050565b60606000601401805480602002602001604051908101604052809291908181526020016000905b828210156113c05760008481526020908190206040805161020081018252600e860290920180546001600160a01b0390811684526001808301548587015260028301548216938501939093526003820154606085015260048201546080850152600582015460a0850152600682015460c08501526007820154811660e085015260088201548116610100808601919091526009830154610120860152600a83015460ff8082161515610140880152918104909116151561016086015262010000900416610180840152600b8101546101a0840152600c8101546101c0840152600d01546101e083015290835290920191016112ca565b50505050905090565b33600090815260046020526040812054828110156114355760405162461bcd60e51b8152602060048201526024808201527f45524332303a204e6f7420656e6f75676820746f6b656e7320746f207472616e60448201526339b332b960e11b6064820152608401610162565b61143f8382611a26565b6001600160a01b038087166000908152600485016020526040808220939093559086168152908120805485929061147790849061199d565b92505081905550836001600160a01b0316856001600160a01b03167fddf252ad1be2c89b69c2b068fc378daa952ba7f163c4a11628f55a4df523b3ef856040516114c391815260200190565b60405180910390a35050505050565b60078701546001600160a01b0316156115b05786600c0154600103611501576114fc3330886113c9565b611580565b86600c015460020361006257600287015460018801546005890154604051637921219560e11b81526001600160a01b039093169263f242432a9261154d92339230929190600401611936565b600060405180830381600087803b15801561156757600080fd5b505af115801561157b573d6000803e3d6000fd5b505050505b600b546115989033906001600160a01b0316876113c9565b600a546115b09033906001600160a01b0316866113c9565b600c546115c89033906001600160a01b0316856113c9565b600d546115e09033906001600160a01b0316846113c9565b604051630852cd8d60e31b81526004810182905273__$e39f0fe5e65a32776687b7240b5f8413af$__906342966c689060240160006040518083038186803b15801561162b57600080fd5b505af415801561163f573d6000803e3d6000fd5b5050505050505050505050565b60405180610200016040528060006001600160a01b031681526020016000815260200160006001600160a01b031681526020016000815260200160008152602001600081526020016000815260200160006001600160a01b0316815260200160006001600160a01b031681526020016000815260200160001515815260200160001515815260200160006001600160a01b031681526020016000815260200160008152602001600081525090565b60006020828403121561170c57600080fd5b5035919050565b80516001600160a01b0316825260208101516020830152604081015161174460408401826001600160a01b03169052565b50606081015160608301526080810151608083015260a081015160a083015260c081015160c083015260e081015161178760e08401826001600160a01b03169052565b50610100818101516001600160a01b03908116918401919091526101208083015190840152610140808301511515908401526101608083015115159084015261018080830151909116908301526101a080820151908301526101c080820151908301526101e090810151910152565b61020081016118058284611713565b92915050565b6001600160a01b038116811461182057600080fd5b50565b60008060008060008060c0878903121561183c57600080fd5b863595506020870135945060408701359350606087013592506080870135915060a087013561186a8161180b565b809150509295509295509295565b6000806040838503121561188b57600080fd5b50508035926020909101359150565b600080600080600060a086880312156118b257600080fd5b8535945060208601359350604086013592506060860135915060808601356118d98161180b565b809150509295509295909350565b6020808252825182820181905260009190848201906040850190845b8181101561192a57611916838551611713565b928401926102009290920191600101611903565b50909695505050505050565b6001600160a01b0394851681529290931660208301526040820152606081019190915260a06080820181905260009082015260c00190565b60006020828403121561198057600080fd5b5051919050565b634e487b7160e01b600052601160045260246000fd5b8082018082111561180557611805611987565b6000600182016119c2576119c2611987565b5060010190565b808202811582820484141761180557611805611987565b6000826119fd57634e487b7160e01b600052601260045260246000fd5b500490565b600060208284031215611a1457600080fd5b8151611a1f8161180b565b9392505050565b818103818111156118055761180561198756fea2646970667358221220faab48fff665d37c63c9cf78ed2d2d610bb8a664f5024ffd783f7f5bd460472b64736f6c63430008180033","linkReferences":{"contracts/libraries/LibAppStorage.sol":{"LibAppStorage":[{"start":5654,"length":20}]}}},"methodIdentifiers":{"bid(uint256,uint256)":"598647f8","closeAuction(uint256)":"236ed8f3","create1155Auction(uint256,uint256,uint256,uint256,uint256,address)":"2ec1e929","create721Auction(uint256,uint256,uint256,uint256,address)":"8c1f7f6a","getAllAuctions()":"cbd2bdfd","getParticularAuction(uint256)":"24edbb97"},"id":0}