{"abi":[{"type":"constructor","inputs":[],"stateMutability":"nonpayable"},{"type":"function","name":"approve","inputs":[{"name":"to","type":"address","internalType":"address"},{"name":"tokenId","type":"uint256","internalType":"uint256"}],"outputs":[],"stateMutability":"nonpayable"},{"type":"function","name":"balanceOf","inputs":[{"name":"owner","type":"address","internalType":"address"}],"outputs":[{"name":"","type":"uint256","internalType":"uint256"}],"stateMutability":"view"},{"type":"function","name":"getApproved","inputs":[{"name":"tokenId","type":"uint256","internalType":"uint256"}],"outputs":[{"name":"","type":"address","internalType":"address"}],"stateMutability":"view"},{"type":"function","name":"isApprovedForAll","inputs":[{"name":"owner","type":"address","internalType":"address"},{"name":"operator","type":"address","internalType":"address"}],"outputs":[{"name":"","type":"bool","internalType":"bool"}],"stateMutability":"view"},{"type":"function","name":"name","inputs":[],"outputs":[{"name":"","type":"string","internalType":"string"}],"stateMutability":"view"},{"type":"function","name":"ownerOf","inputs":[{"name":"tokenId","type":"uint256","internalType":"uint256"}],"outputs":[{"name":"","type":"address","internalType":"address"}],"stateMutability":"view"},{"type":"function","name":"safeMint","inputs":[],"outputs":[],"stateMutability":"nonpayable"},{"type":"function","name":"safeTransferFrom","inputs":[{"name":"from","type":"address","internalType":"address"},{"name":"to","type":"address","internalType":"address"},{"name":"tokenId","type":"uint256","internalType":"uint256"}],"outputs":[],"stateMutability":"nonpayable"},{"type":"function","name":"safeTransferFrom","inputs":[{"name":"from","type":"address","internalType":"address"},{"name":"to","type":"address","internalType":"address"},{"name":"tokenId","type":"uint256","internalType":"uint256"},{"name":"data","type":"bytes","internalType":"bytes"}],"outputs":[],"stateMutability":"nonpayable"},{"type":"function","name":"setApprovalForAll","inputs":[{"name":"operator","type":"address","internalType":"address"},{"name":"approved","type":"bool","internalType":"bool"}],"outputs":[],"stateMutability":"nonpayable"},{"type":"function","name":"supportsInterface","inputs":[{"name":"interfaceId","type":"bytes4","internalType":"bytes4"}],"outputs":[{"name":"","type":"bool","internalType":"bool"}],"stateMutability":"view"},{"type":"function","name":"symbol","inputs":[],"outputs":[{"name":"","type":"string","internalType":"string"}],"stateMutability":"view"},{"type":"function","name":"tokenURI","inputs":[{"name":"tokenId","type":"uint256","internalType":"uint256"}],"outputs":[{"name":"","type":"string","internalType":"string"}],"stateMutability":"view"},{"type":"function","name":"transferFrom","inputs":[{"name":"from","type":"address","internalType":"address"},{"name":"to","type":"address","internalType":"address"},{"name":"tokenId","type":"uint256","internalType":"uint256"}],"outputs":[],"stateMutability":"nonpayable"},{"type":"event","name":"Approval","inputs":[{"name":"owner","type":"address","indexed":true,"internalType":"address"},{"name":"approved","type":"address","indexed":true,"internalType":"address"},{"name":"tokenId","type":"uint256","indexed":true,"internalType":"uint256"}],"anonymous":false},{"type":"event","name":"ApprovalForAll","inputs":[{"name":"owner","type":"address","indexed":true,"internalType":"address"},{"name":"operator","type":"address","indexed":true,"internalType":"address"},{"name":"approved","type":"bool","indexed":false,"internalType":"bool"}],"anonymous":false},{"type":"event","name":"Transfer","inputs":[{"name":"from","type":"address","indexed":true,"internalType":"address"},{"name":"to","type":"address","indexed":true,"internalType":"address"},{"name":"tokenId","type":"uint256","indexed":true,"internalType":"uint256"}],"anonymous":false},{"type":"error","name":"ERC721IncorrectOwner","inputs":[{"name":"sender","type":"address","internalType":"address"},{"name":"tokenId","type":"uint256","internalType":"uint256"},{"name":"owner","type":"address","internalType":"address"}]},{"type":"error","name":"ERC721InsufficientApproval","inputs":[{"name":"operator","type":"address","internalType":"address"},{"name":"tokenId","type":"uint256","internalType":"uint256"}]},{"type":"error","name":"ERC721InvalidApprover","inputs":[{"name":"approver","type":"address","internalType":"address"}]},{"type":"error","name":"ERC721InvalidOperator","inputs":[{"name":"operator","type":"address","internalType":"address"}]},{"type":"error","name":"ERC721InvalidOwner","inputs":[{"name":"owner","type":"address","internalType":"address"}]},{"type":"error","name":"ERC721InvalidReceiver","inputs":[{"name":"receiver","type":"address","internalType":"address"}]},{"type":"error","name":"ERC721InvalidSender","inputs":[{"name":"sender","type":"address","internalType":"address"}]},{"type":"error","name":"ERC721NonexistentToken","inputs":[{"name":"tokenId","type":"uint256","internalType":"uint256"}]}],"bytecode":{"object":"0x60806040523480156200001157600080fd5b506040518060400160405280600781526020016626bcaa37b5b2b760c91b815250604051806040016040528060038152602001624d544b60e81b81525081600090816200005f919062000130565b5060016200006e828262000130565b5050600780546001600160a01b0319163317905550620001fc565b634e487b7160e01b600052604160045260246000fd5b600181811c90821680620000b457607f821691505b602082108103620000d557634e487b7160e01b600052602260045260246000fd5b50919050565b601f8211156200012b576000816000526020600020601f850160051c81016020861015620001065750805b601f850160051c820191505b81811015620001275782815560010162000112565b5050505b505050565b81516001600160401b038111156200014c576200014c62000089565b62000164816200015d84546200009f565b84620000db565b602080601f8311600181146200019c5760008415620001835750858301515b600019600386901b1c1916600185901b17855562000127565b600085815260208120601f198616915b82811015620001cd57888601518255948401946001909101908401620001ac565b5085821015620001ec5787850151600019600388901b60f8161c191681555b5050505050600190811b01905550565b611027806200020c6000396000f3fe608060405234801561001057600080fd5b50600436106100ea5760003560e01c80636871ee401161008c578063a22cb46511610066578063a22cb465146101d6578063b88d4fde146101e9578063c87b56dd146101fc578063e985e9c51461020f57600080fd5b80636871ee40146101a557806370a08231146101ad57806395d89b41146101ce57600080fd5b8063095ea7b3116100c8578063095ea7b31461015757806323b872dd1461016c57806342842e0e1461017f5780636352211e1461019257600080fd5b806301ffc9a7146100ef57806306fdde0314610117578063081812fc1461012c575b600080fd5b6101026100fd366004610c3a565b610222565b60405190151581526020015b60405180910390f35b61011f610274565b60405161010e9190610ca7565b61013f61013a366004610cba565b610306565b6040516001600160a01b03909116815260200161010e565b61016a610165366004610cef565b61032f565b005b61016a61017a366004610d19565b61033e565b61016a61018d366004610d19565b6103ce565b61013f6101a0366004610cba565b6103ee565b61016a6103f9565b6101c06101bb366004610d55565b61041d565b60405190815260200161010e565b61011f610465565b61016a6101e4366004610d70565b610474565b61016a6101f7366004610dc2565b61047f565b61011f61020a366004610cba565b610496565b61010261021d366004610e9e565b6104fe565b60006001600160e01b031982166380ac58cd60e01b148061025357506001600160e01b03198216635b5e139f60e01b145b8061026e57506301ffc9a760e01b6001600160e01b03198316145b92915050565b60606000805461028390610ed1565b80601f01602080910402602001604051908101604052809291908181526020018280546102af90610ed1565b80156102fc5780601f106102d1576101008083540402835291602001916102fc565b820191906000526020600020905b8154815290600101906020018083116102df57829003601f168201915b5050505050905090565b60006103118261052c565b506000828152600460205260409020546001600160a01b031661026e565b61033a828233610565565b5050565b6001600160a01b03821661036d57604051633250574960e11b8152600060048201526024015b60405180910390fd5b600061037a838333610572565b9050836001600160a01b0316816001600160a01b0316146103c8576040516364283d7b60e01b81526001600160a01b0380861660048301526024820184905282166044820152606401610364565b50505050565b6103e98383836040518060200160405280600081525061047f565b505050565b600061026e8261052c565b600680546000918261040a83610f0b565b91905055905061041a338261066b565b50565b60006001600160a01b038216610449576040516322718ad960e21b815260006004820152602401610364565b506001600160a01b031660009081526003602052604090205490565b60606001805461028390610ed1565b61033a338383610685565b61048a84848461033e565b6103c884848484610724565b60606104a18261052c565b5060006104ac61084d565b905060008151116104cc57604051806020016040528060008152506104f7565b806104d68461086d565b6040516020016104e7929190610f32565b6040516020818303038152906040525b9392505050565b6001600160a01b03918216600090815260056020908152604080832093909416825291909152205460ff1690565b6000818152600260205260408120546001600160a01b03168061026e57604051637e27328960e01b815260048101849052602401610364565b6103e98383836001610900565b6000828152600260205260408120546001600160a01b039081169083161561059f5761059f818486610a06565b6001600160a01b038116156105dd576105bc600085600080610900565b6001600160a01b038116600090815260036020526040902080546000190190555b6001600160a01b0385161561060c576001600160a01b0385166000908152600360205260409020805460010190555b60008481526002602052604080822080546001600160a01b0319166001600160a01b0389811691821790925591518793918516917fddf252ad1be2c89b69c2b068fc378daa952ba7f163c4a11628f55a4df523b3ef91a4949350505050565b61033a828260405180602001604052806000815250610a6a565b6001600160a01b0382166106b757604051630b61174360e31b81526001600160a01b0383166004820152602401610364565b6001600160a01b03838116600081815260056020908152604080832094871680845294825291829020805460ff191686151590811790915591519182527f17307eab39ab6107e8899845ad3d59bd9653f200f220920489ca2b5937696c31910160405180910390a3505050565b6001600160a01b0383163b156103c857604051630a85bd0160e11b81526001600160a01b0384169063150b7a0290610766903390889087908790600401610f61565b6020604051808303816000875af19250505080156107a1575060408051601f3d908101601f1916820190925261079e91810190610f9e565b60015b61080a573d8080156107cf576040519150601f19603f3d011682016040523d82523d6000602084013e6107d4565b606091505b50805160000361080257604051633250574960e11b81526001600160a01b0385166004820152602401610364565b805181602001fd5b6001600160e01b03198116630a85bd0160e11b1461084657604051633250574960e11b81526001600160a01b0385166004820152602401610364565b5050505050565b6060604051806060016040528060368152602001610fbc60369139905090565b6060600061087a83610a81565b600101905060008167ffffffffffffffff81111561089a5761089a610dac565b6040519080825280601f01601f1916602001820160405280156108c4576020820181803683370190505b5090508181016020015b600019016f181899199a1a9b1b9c1cb0b131b232b360811b600a86061a8153600a85049450846108ce57509392505050565b808061091457506001600160a01b03821615155b156109d65760006109248461052c565b90506001600160a01b038316158015906109505750826001600160a01b0316816001600160a01b031614155b8015610963575061096181846104fe565b155b1561098c5760405163a9fbf51f60e01b81526001600160a01b0384166004820152602401610364565b81156109d45783856001600160a01b0316826001600160a01b03167f8c5be1e5ebec7d5bd14f71427d1e84f3dd0314c0f7b2291e5b200ac8c7c3b92560405160405180910390a45b505b5050600090815260046020526040902080546001600160a01b0319166001600160a01b0392909216919091179055565b610a11838383610b59565b6103e9576001600160a01b038316610a3f57604051637e27328960e01b815260048101829052602401610364565b60405163177e802f60e01b81526001600160a01b038316600482015260248101829052604401610364565b610a748383610bbf565b6103e96000848484610724565b60008072184f03e93ff9f4daa797ed6e38ed64bf6a1f0160401b8310610ac05772184f03e93ff9f4daa797ed6e38ed64bf6a1f0160401b830492506040015b6d04ee2d6d415b85acef81000000008310610aec576d04ee2d6d415b85acef8100000000830492506020015b662386f26fc100008310610b0a57662386f26fc10000830492506010015b6305f5e1008310610b22576305f5e100830492506008015b6127108310610b3657612710830492506004015b60648310610b48576064830492506002015b600a831061026e5760010192915050565b60006001600160a01b03831615801590610bb75750826001600160a01b0316846001600160a01b03161480610b935750610b9384846104fe565b80610bb757506000828152600460205260409020546001600160a01b038481169116145b949350505050565b6001600160a01b038216610be957604051633250574960e11b815260006004820152602401610364565b6000610bf783836000610572565b90506001600160a01b038116156103e9576040516339e3563760e11b815260006004820152602401610364565b6001600160e01b03198116811461041a57600080fd5b600060208284031215610c4c57600080fd5b81356104f781610c24565b60005b83811015610c72578181015183820152602001610c5a565b50506000910152565b60008151808452610c93816020860160208601610c57565b601f01601f19169290920160200192915050565b6020815260006104f76020830184610c7b565b600060208284031215610ccc57600080fd5b5035919050565b80356001600160a01b0381168114610cea57600080fd5b919050565b60008060408385031215610d0257600080fd5b610d0b83610cd3565b946020939093013593505050565b600080600060608486031215610d2e57600080fd5b610d3784610cd3565b9250610d4560208501610cd3565b9150604084013590509250925092565b600060208284031215610d6757600080fd5b6104f782610cd3565b60008060408385031215610d8357600080fd5b610d8c83610cd3565b915060208301358015158114610da157600080fd5b809150509250929050565b634e487b7160e01b600052604160045260246000fd5b60008060008060808587031215610dd857600080fd5b610de185610cd3565b9350610def60208601610cd3565b925060408501359150606085013567ffffffffffffffff80821115610e1357600080fd5b818701915087601f830112610e2757600080fd5b813581811115610e3957610e39610dac565b604051601f8201601f19908116603f01168101908382118183101715610e6157610e61610dac565b816040528281528a6020848701011115610e7a57600080fd5b82602086016020830137600060208483010152809550505050505092959194509250565b60008060408385031215610eb157600080fd5b610eba83610cd3565b9150610ec860208401610cd3565b90509250929050565b600181811c90821680610ee557607f821691505b602082108103610f0557634e487b7160e01b600052602260045260246000fd5b50919050565b600060018201610f2b57634e487b7160e01b600052601160045260246000fd5b5060010190565b60008351610f44818460208801610c57565b835190830190610f58818360208801610c57565b01949350505050565b6001600160a01b0385811682528416602082015260408101839052608060608201819052600090610f9490830184610c7b565b9695505050505050565b600060208284031215610fb057600080fd5b81516104f781610c2456fe697066733a2f2f516d5a4344395431345272626932726673624662696e5a4c48365561537747746b4465756f6b764c76414c7869662fa2646970667358221220aa6b4b11b19a46572a06559c37c4d4e046aa1a5c7f5f431b8fb0ebce4d4de79a64736f6c63430008180033","linkReferences":{}},"methodIdentifiers":{"approve(address,uint256)":"095ea7b3","balanceOf(address)":"70a08231","getApproved(uint256)":"081812fc","isApprovedForAll(address,address)":"e985e9c5","name()":"06fdde03","ownerOf(uint256)":"6352211e","safeMint()":"6871ee40","safeTransferFrom(address,address,uint256)":"42842e0e","safeTransferFrom(address,address,uint256,bytes)":"b88d4fde","setApprovalForAll(address,bool)":"a22cb465","supportsInterface(bytes4)":"01ffc9a7","symbol()":"95d89b41","tokenURI(uint256)":"c87b56dd","transferFrom(address,address,uint256)":"23b872dd"},"id":2}